:0400000045EF00F0D8
:100008004E82FACF04F0FBCF05F0E9CF06F0EACF35
:1000180007F0E1CF08F0E2CF09F0D9CF0AF0DACF44
:100028000BF0F3CF0CF0F4CF0DF0F6CF0EF0F7CFC6
:100038000FF0F8CF10F0F5CF11F037EC0BF005EC1E
:100048000EF0D4EC0BF011C0F5FF10C0F8FF0FC094
:10005800F7FF0EC0F6FF0DC0F4FF0CC0F3FF0BC096
:10006800DAFF0AC0D9FF09C0E2FF08C0E1FF07C0F4
:10007800EAFF06C0E9FF05C0FBFF04C0FAFF4E9285
:06008800110051EF0DF024
:100F0000006D61632073657420647220780D0A009F
:100F100073797320676574207665720D0A00416DE0
:100F2000622E0050697065006D61632073657420E6
:100F30006170706B657920324531354146433934F3
:100F400041374546363941453631413831343733FA
:100F5000374333383639390D0A006D6163207365C4
:100F600074206170706575692037344335343234CC
:100F70003533383537393734410D0A006D61632018
:100F8000736574206465766575692030303034414E
:100F900033304230303141434637440D0A006D61F1
:0F0FA00063206A6F696E206F7461610D0A000033
:100FB000246E2450D8A42AD0000E266E000E256E72
:100FC00026BE06D026501DE1040E255CD8B019D0EF
:100FD000230E2524F66E0F0E2620F76EF86A000EFB
:100FE000F822800E2524D96E000E2620DA6E080025
:100FF000F5CFDFFF254A262A26BEEAD7265001E193
:10100000E3D7B8C02AF0B9C02BF029D0000E286E63
:10101000000E276E28BE06D028501DE1040E275C66
:10102000D8B019D01E0E2724F66E0F0E2820F76EAA
:10103000F86A000EF822800E2724D96E000E2820B0
:10104000DA6E0800F5CFDFFF274A282A28BEEAD744
:10105000285001E1E3D7B6C02AF0B7C02BF02BAE81
:1010600008D02D0E0001606F2A6C2B1ED8B02B2AE1
:1010700003D0200E0001606F2AC018F02BC019F0B9
:10108000000E1B6E640E1A6E17EC0CF01850300F29
:101090000001616F000E156E640E146E2AC012F00E
:1010A0002BC013F094EC0CF012C018F013C019F020
:1010B000000E1B6E0A0E1A6E17EC0CF01850300F53
:1010C0000001626F2AC012F02BC013F0000E156EE3
:1010D0000A0E146E94EC0CF01250300F0001636F86
:1010E0000C0E296E100E296401D01200F40E206E31
:1010F000FF0E216E2950226E236A20502226215095
:101100002322600E2224D96E000E2320DA6E29508D
:10111000010D800EF324E16E000EF420E26EDFCFAD
:10112000E7FF292ADFD796C098F00001996B9A6BE8
:10113000000195350001983701E39981000198512C
:101140000001A26F0001A251D8A40AD0000E000134
:10115000946F000E956F000E966F000E976F120041
:10116000170E0001986F94C099F095C09AF096C040
:101170009BF00001982900019C6F05D00001D890D8
:101180009B339A33993300019C2FF8D70001995172
:1011900000019D6F0001958FFF0E00019417FF0E57
:1011A00000019517000E00019617000194510001EF
:1011B0009E6F0001955100019F6F00019651000143
:1011C000A06F0001A16B8E0E0001A25F0001A2AF13
:1011D0001AD00001A251800A8F0FD8B00AD0000E99
:1011E0000001946F000E956F000E966F000E976FC2
:1011F00012000001D890A133A0339F339E33000129
:10120000A23FF7D71BD0170E0001A26512D0000E27
:101210000001946F000E956F000E966F000E976F91
:1012200012000001D8909E379F37A037A1370001E8
:10123000A2070001A2510001D8A4F3D700019D51DB
:101240000001D8B409D00001A11FA01F9F1F9E6DEF
:10125000000E9F23A023A1239EC094F09FC095F071
:10126000A0C096F0A1C097F012002FC033F0346AEE
:10127000356A2E34333601E334803350366E3650BF
:10128000D8A407D0000E2D6E000E2E6E000E2F6E0D
:10129000120032C033F0346A356A3134333601E338
:1012A000348033503B6E3B50D8A407D0000E2D6ED7
:1012B000000E2E6E000E2F6E12003B507B0F362656
:1012C0002FC03BF032503B1A800E3B162E8E318ED3
:1012D000FF0E3016FF0E3116000E3216000E376E5E
:1012E000000E386E000E396E070E3A6E2DA006D035
:1012F000305037263150382232503922D8902F3290
:101300002E322D32D8903036313632363A2EEED754
:10131000090E3A6E2DA006D03050372631503822B3
:1013200032503922D8902F322E322D32D890393285
:10133000383237323A2EEED737C012F038C013F0B9
:1013400039C014F036C015F03BC016F0E0EC0AF0DE
:1013500012C02DF013C02EF014C02FF0120020C0C8
:1013600024F0256A266A1F34243601E325802450A0
:101370002B6E2B50D8A407D0000E1E6E000E1F6ED1
:10138000000E206E120023C024F0256A266A223443
:10139000243601E3258024502C6E2C50D8A407D08D
:1013A000000E1E6E000E1F6E000E206E1200000E4C
:1013B000286E000E296E000E2A6E2C50890F2B5EAF
:1013C00020C02CF023502C1A800E2C161F8EFF0EDE
:1013D0001E16FF0E1F16000E2016228EFF0E21165F
:1013E000FF0E2216000E2316180E276ED8902836F0
:1013F00029362A3621501E5C22501F58235020586F
:10140000D8A007D021501E5E22501F5A2350205AC8
:101410002880D8901E361F362036272EE7D728C0C2
:1014200012F029C013F02AC014F02BC015F02CC004
:1014300016F0E0EC0AF012C01EF013C01FF014C04A
:1014400020F01200D388D380D382010E0001656F93
:1014500099EC0DF047EC0EF01DEC0EF05DEC0EF08B
:10146000C0C012F0C1C013F0C0C014F0C1C015F06C
:1014700034EC0EF012C0ADF013C0AEF0ADC012F0FF
:10148000AEC013F0000E156E280E146E34EC0EF084
:1014900012C0C2F013C0C3F0010E55EC0EF0CCEC3C
:1014A0000CF0000E55EC0EF0030E136E200E126EB3
:1014B000ECEC0DF087EC0BF0660E176E000E186E5C
:1014C00059EC0CF0030E136E200E126EECEC0DF0C6
:1014D000000EFDEC0CF0800E176E000E186E59EC2D
:1014E0000CF0030E136E200E126EECEC0DF0010EDC
:1014F000FDEC0CF0800E176E000E186E59EC0CF01F
:10150000030E136E200E126EECEC0DF0A9D7A5C0E1
:101510003CF0A6C03DF03C1E3D1E3C4A3D2A000169
:10152000A3513C240001AA6F0001A4513D200001F9
:10153000AB6FE00E306E2B0E316E450E326E000E2C
:10154000216E800E226E440E236EAAC01AF0ABC02C
:101550001BF0B6EC0DF01AC01EF01BC01FF01CC033
:1015600020F0AFEC09F01EC02DF01FC02EF020C0FF
:101570002FF035EC09F02DC0A7F02EC0A8F02FC039
:10158000A9F0000E216E200E226E410E236EA7C020
:101590001EF0A8C01FF0A9C020F0AFEC09F01EC0DB
:1015A00094F01FC095F020C096F093EC08F094C022
:1015B000AAF095C0ABF0AAC0A3F0ABC0A4F0120093
:1015C0001550D8B405D0125013101410D8A40CD054
:1015D000000E126E000E136E000E146E1200152A0D
:1015E000D890143213321232000E1214176E000EFD
:1015F0001314186EFE0E1414196E175018101910CB
:10160000D8B40CD0ECD7152A010E1226000E1322E6
:10161000000E1422D890143213321232000E12141B
:10162000176E000E1314186EFF0E1414196E175057
:1016300018101910D8B406D0E6D71506D89012366F
:101640001336143613BE03D0020E1560F6D715A05C
:10165000139ED8901532155014121650D8A4148E1B
:1016600012C012F013C013F014C014F012009EAC9C
:1016700012009E9C35D0C3CF4AF0C4CF4BF0C2506D
:10168000C30B2009C26E000E0001B36F010E26D0FD
:10169000C3CF46F0C4CF47F0C250C30B0409C26E9B
:1016A000000E0001B36F020E19D0C3CF48F0C4CFB3
:1016B00049F0C294C296C298C29A000E0001B36F5C
:1016C000030E0CD0C3CF44F0C4CF45F0C250C30BBF
:1016D0002409C26E000E0001B36F000EB26F15D068
:1016E000B2C001F0B3C002F00250000AD8A40DD07D
:1016F0000150000AD8B4BFD7010AD8B4C9D7030A29
:10170000D8B4D3D7010AD8B4DDD7C2821200C0C082
:1017100017F0C1C018F0030E1A6EE80E196E28EC0F
:101720000DF01750300F0001796F030E156EE80EA3
:10173000146EC0C012F0C1C013F078EC0DF012C0EE
:1017400017F013C018F0000E1A6E640E196E28EC14
:101750000DF01750300F00017A6F000E156E640EF9
:10176000146EC0C012F0C1C013F078EC0DF012C0BE
:1017700017F013C018F0000E1A6E0A0E196E28EC3E
:101780000DF01750300F00017B6FC0C012F0C1C0C8
:1017900013F0000E156E0A0E146E78EC0DF0125058
:1017A000300F00017C6F12008FAA120042C040F07F
:1017B00043C041F00F010851026E016A0F01075149
:1017C0000124426E000E0220436E40C001F041C071
:1017D00002F0011E021E014A022A42500126435015
:1017E0000222040E036ED89002320132032EFBD780
:1017F000400E015C060E0258D8B017D040C001F070
:1018000041C002F0011E021E014A022A4250012676
:1018100043500222040E036ED89002320132032E8E
:10182000FBD701C0C0F002C0C1F08F9A1200000EB9
:101830001D6E1BAE06D01A6C1B1ED8B01B2A010EE3
:101840001D6E19AE06D0186C191ED8B0192A010EDB
:101850001D1A000E1F6E000E1E6E1A501B10D8B4FB
:101860001CD0010E1C6E04D0D8901A361B361C2AD0
:101870001BAEFAD7D8901E361F361A50185C1B5074
:101880001958D8A005D01A50185E1B50195A1E803E
:10189000D8901B321A321C2EEDD71D50D8B404D06C
:1018A0001E6C1F1ED8B01F2A1EC018F01FC019F0D2
:1018B000120017C03EF018C03FF04CC0B4F04DC04D
:1018C000B5F0AD8A1CD09EA81AD03EC0F6FF3FC02E
:1018D000F7FF000EF86E0E0EF76403D00800F55007
:1018E00005D0F6CFE9FFF7CFEAFFEF50AE6E3E4AE4
:1018F0003F2A000E136E010E126EECEC0DF03EC08E
:10190000F6FF3FC0F7FF000EF86E0E0EF76403D02F
:101910000800F55005D0F6CFE9FFF7CFEAFFEF500A
:101920000009D8B41200CFD7000E176E13AE06D040
:10193000126C131ED8B0132A010E176E15AE04D008
:10194000146C151ED8B0152A14501510D8B418D020
:10195000010E166E04D0D89014361536162A15AE20
:10196000FAD71450125C15501358D8A004D0145054
:10197000125E1550135AD89015321432162EF1D724
:101980001750D8B404D0126C131ED8B0132A12C04A
:1019900012F013C013F012007C0E176E0F0E186EAB
:1019A00059EC0CF0030E136E200E126EECEC0DF0E1
:1019B0005A0E176E0F0E186E59EC0CF0030E136EC4
:1019C000200E126EECEC0DF0280E176E0F0E186E36
:1019D00059EC0CF00B0E136EB80E126EECEC0DF011
:1019E0009E0E176E0F0E186E59EC0CF00B0E136E48
:1019F000B80E126EECEC0DF012000001AC6F00019D
:101A0000AC510001D8A412D04AC0A3F04BC0A4F03E
:101A100046C0A5F047C0A6F087EC0AF0A3C0B8F016
:101A2000A4C0B9F0000ED8EC07F0120048C0A3F033
:101A300049C0A4F044C0A5F045C0A6F087EC0AF068
:101A4000A3C0B6F0A4C0B7F0010ED8EC07F01200A6
:101A5000000E1C6E000E1B6E19501A10D8B41CD04C
:101A6000010E1D6E04D0D89019361A361D2A1AAEF2
:101A7000FAD7D8901B361C361950175C1A501858D4
:101A8000D8A005D01950175E1A50185A1B80D8904C
:101A90001A3219321D2EEDD71BC017F01CC018F0DA
:101AA000120001EE00F0640EEE6AE806FDE100EEC1
:101AB000AFF0130EEE6AE806FDE100EE3EF0100E08
:101AC000EE6AE806FDE1A40EF66E1B0EF76E000E40
:101AD000F86E00EE60F010EE34F00900F5CFEEFF86
:101AE000E550E150FAE14E904E92000122EF0AF0EB
:101AF00014501510D8B418D0010E166E04D0D8901A
:101B000014361536162A15AEFAD71450125C155035
:101B10001358D8A004D01450125E1550135AD89000
:101B200015321432162EF1D712C012F013C013F072
:101B3000120094820F0150930F0150918E8A8F9A58
:101B4000070E0F01066FF28ECD82CD80CD8CCD9E1B
:101B5000CD9ACD98CD96000ECE6E000ECF6E000EB3
:101B60000F01086F000E0F01076F1200000E1D6EAF
:101B70001BAE06D01A6C1B1ED8B01B2A010E1D6EA0
:101B80001AC012F01BC013F0146A8E0E156E1DC021
:101B900016F0E0EC0AF012C01AF013C01BF014C0EB
:101BA0001CF012002020202020015468652066725D
:101BB000657175656E63792069733A202020202055
:101BC000200D0A00506970652074656D70203D20FD
:101BD00020202020200D0A00000E166E000E156E2B
:101BE00009D0030E146E980EE82EFED7142EFCD7E3
:101BF000154A162A1250155C1650800A146E13509E
:101C0000800A1458D8B01200ECD79EAA12009E9AEF
:101C1000000E4C24D96E010E4D20DA6EAFCFDFFFDF
:101C20004C4A4D2A4D5004E1650E4C5CD8A0120080
:101C3000000E4D6E000E4C6E1200928092828090CB
:101C400080928190938081929382FC0E0F01486F65
:101C50001C0E0F01496F000EC26EBE0EC16EC28017
:101C60009E9C9D9CC282120012501402F3CF16F06B
:101C7000F4CF17F012501502F35017261350140228
:101C8000F350172616C012F017C013F01200948EEE
:101C9000949CAD847E86000E7F6E220EB06EAD9851
:101CA000AC8E9D989D8AAC881200126E1204D8A446
:101CB00002D0AC881200AC981200C00EF26ED09E1A
:021CC000120010
:020000040001F9
:08FFF800AEF7FAFFFFFBFFFB6F
:00000001FF
