:0400000045EF00F0D8
:100008004E82FACF04F0FBCF05F0E9CF06F0EACF35
:1000180007F0E1CF08F0E2CF09F0D9CF0AF0DACF44
:100028000BF0F3CF0CF0F4CF0DF0F6CF0EF0F7CFC6
:100038000FF0F8CF10F0F5CF11F0ADEC8BF00BEC22
:100048008FF071EC87F011C0F5FF10C0F8FF0FC0FA
:10005800F7FF0EC0F6FF0DC0F4FF0CC0F3FF0BC096
:10006800DAFF0AC0D9FF09C0E2FF08C0E1FF07C0F4
:10007800EAFF06C0E9FF05C0FBFF04C0FAFF4E9285
:06008800110086EF8DF06F
:10FEC600006D61632073657420647220780D0A00EA
:10FED60073797320676574207665720D0A000100D8
:10FEE600100000010010416D622E0050697065001F
:10FEF600FDD3E86D616320736574206170706B6576
:10FF06007920324531354146433934413745463605
:10FF16003941453631413831343733374333383652
:10FF260039390D0A006D6163207365742061707044
:10FF360065756920373443353432343533383537CF
:10FF4600393734410D0A006D61632073657420648E
:10FF56006576657569203030303441333042303053
:10FF66003141434637440D0A0000803F72313FFE5F
:10FF7600753E58633D951D3CC5AE3A79213994804E
:10FF86003793A73556153400000000803FF0FFBEBA
:10FF9600E2A93E8376BEAE2B3E3CC3BDD2133D786E
:10FFA600D3BB6D6163206A6F696E206F7461610DEA
:10FFB6000A006D616320747820636E662031202507
:10FFC60078257325782573257825732578200D0ADD
:10FFD600003031323334353637383961626364651F
:10FFE60066006D616320747820636E6620312000A0
:0AFFF600286E756C6C29005F000096
:020000040001F9
:10000000A0C0A4F00001A56BA66B00019F35000104
:10001000A43701E3A5810001A4510001A96FA3C089
:10002000A4F00001A56BA66B0001A2350001A43766
:1000300001E3A5810001A4510001A86F0001A951AD
:100040000001D8B411D00001A8510001A95DD8B0B9
:1000500012D00001A95100080001A8250001A46FD9
:10006000180E0001A46507D0A1C09EF0A2C09FF0A9
:10007000A3C0A0F012000001A8510001D8B411D013
:100080000001A9510001A85DD8B012D00001A8510B
:1000900000080001A9250001A46F180E0001A46545
:1000A00007D09EC09EF09FC09FF0A0C0A0F012009D
:1000B000060E0001A76F0001A0AF02D00001A78FBC
:1000C0000001A3AF02D00001A78D00019F8FFF0E9A
:1000D00000019E17FF0E00019F17000E0001A017E0
:1000E0000001A28FFF0E0001A117FF0E0001A21751
:1000F000000E0001A3170001A8510001A95DD8B0AE
:1001000025D00001D890A137A237A3370001A80756
:100110000001A9510001A819D8B411D00001A70706
:10012000A7C0A4F0070E0001A417D8B408D0E9D7DF
:100130000001D890A0339F339E330001A92B00010A
:10014000A8510001A919D8B42BD0F2D70001A951A8
:100150000001A85DD8B024D00001D8909E379F3709
:10016000A0370001A9070001A9510001A819D8B4BE
:1001700011D00001A707A7C0A4F0070E0001A41723
:10018000D8B408D0E9D70001D890A333A233A13363
:100190000001A82B0001A8510001A919D8A4F3D788
:1001A0000001A7AF12D0FF0E00019E1BFF0E000141
:1001B0009F1BFF0E0001A01B010E00019E27000ED9
:1001C00000019F23000E0001A0230001A7AD12D063
:1001D000FF0E0001A11BFF0E0001A21BFF0E00017C
:1001E000A31B010E0001A127000E0001A223000E97
:1001F0000001A323000E0001A76F00019E51000122
:10020000A12700019F510001A2230001A05100017C
:10021000A3230001A3AF15D0FF0E0001A11BFF0E09
:100220000001A21BFF0E0001A31B010E0001A1276C
:10023000000E0001A223000E0001A323010E000105
:10024000A76FA1C012F0A2C013F0A3C014F0A9C000
:1002500015F0A7C016F002EC8BF012C09EF013C090
:100260009FF014C0A0F012000001BD510001BE11AA
:100270000001BF11D8A40AD0000E0001BD6F800E8E
:100280000001BE6F3F0E0001BF6F1200720E000131
:100290009E6F310E00019F6F440E0001A06FBDC024
:1002A000A1F0BEC0A2F0BFC0A3F045EC8AF00001EF
:1002B000D8B00FD0000E0001E26F220EE16FFF0EEA
:1002C0000001BD6F7F0E0001BE6F7F0E0001BF6F8A
:1002D0001200BDC09EF0BEC09FF0BFC0A0F0490E8E
:1002E0000001A16F3A0E0001A26FC40E0001A36FBE
:1002F00045EC8AF00001D8B00FD0000E0001E26F8B
:10030000220EE16F000E0001BD6F000E0001BE6FF6
:10031000000E0001BF6F12000001BFAF02D0010E3E
:1003200001D0000E0001C56F0001C5510001D8B415
:100330000ED0BDC012F0BEC013F0BFC014F072ECFE
:100340008FF012C0BDF013C0BEF014C0BFF0BDC02E
:100350002DF0BEC02EF0BFC02FF0AA0E306EB80E2A
:10036000316E3F0E326E73EC88F02DC0BDF02EC0A2
:10037000BEF02FC0BFF0BDC0B5F0BEC0B6F0BFC06C
:10038000B7F0F6EC87F0B5C0C0F0B6C0C1F0B7C0AA
:10039000C2F0C0C09EF0C1C09FF0C2C0A0F0DDECB2
:1003A00083F09EC0C3F09FC0C4F0BDC0AAF0BEC021
:1003B000ABF0BFC0ACF0C3C01AF0C4C01BF0D6ECA9
:1003C0008EF01AC0ADF01BC0AEF01CC0AFF070ECE8
:1003D0008EF0AAC0BDF0ABC0BEF0ACC0BFF0BDC0D7
:1003E000AAF0BEC0ABF0BFC0ACF06F0E0001AD6FA5
:1003F000FF0E0001AE6F000E0001B06F090EAF6F6F
:10040000D5EC89F0AAC0B4F0ABC0B5F0ACC0B6F082
:10041000C3C0B7F0C4C0B8F0E5EC86F0B4C0BDF01E
:10042000B5C0BEF0B6C0BFF00001C5510001D8B4E0
:100430002BD00001BD2913E17F0E0001BE190FE191
:100440007F0E0001BF19D8A40AD0000E0001BD6FB5
:10045000000E0001BE6F000E0001BF6F1200000E03
:100460001E6E800E1F6E3F0E206EBDC021F0BEC0FE
:1004700022F0BFC023F062EC89F01EC0BDF01FC0A7
:10048000BEF020C0BFF01200BDC0BDF0BEC0BEF0C7
:10049000BFC0BFF01200000E0001D26F0001C651B4
:1004A0000001C7110001C811D8A423D0000E00011B
:1004B0009E6F000E00019F6F000E0001A06FC9C06B
:1004C000A1F0CAC0A2F0CBC0A3F045EC8AF00001B5
:1004D000D8A005D0000E0001E26F210EE16F000EE2
:1004E0000001C66F000E0001C76F000E0001C86F4B
:1004F00012000001C9510001CA110001CB11D8A49A
:100500000AD0000E0001C66F800E0001C76F3F0EBB
:100510000001C86F12000001C8AF49D0C9C09EF0E9
:10052000CAC09FF0CBC0A0F0DDEC83F09EC0D3F03A
:100530009FC0D4F0A0C0D5F0A1C0D6F0D3C01AF0AF
:10054000D4C01BF0D5C01CF0D6C01DF0EEEC8DF071
:100550000001C9511A1809E10001CA511B1805E12F
:100560000001CB511C18D8B40FD0000E0001E26F6F
:10057000210EE16F000E0001C66F000E0001C76F73
:10058000000E0001C86F12000001D351010B0001E1
:10059000D26FC6C012F0C7C013F0C8C014F072EC1E
:1005A0008FF012C0C6F013C0C7F014C0C8F0C6C0A8
:1005B000B4F0C7C0B5F0C8C0B6F07FEC84F0B4C0EA
:1005C000CCF0B5C0CDF0B6C0CEF0CCC02DF0CDC0D3
:1005D0002EF0CEC02FF0C9C030F0CAC031F0CBC071
:1005E00032F073EC88F02DC0CFF02EC0D0F02FC0C9
:1005F000D1F0CFC0BDF0D0C0BEF0D1C0BFF034EC60
:1006000081F0BDC0C6F0BEC0C7F0BFC0C8F00001D9
:10061000D2510001D8B40FD0C6C012F0C7C013F039
:10062000C8C014F072EC8FF012C0C6F013C0C7F04F
:1006300014C0C8F01200C6C0C6F0C7C0C7F0C8C01A
:10064000C8F01200246E2450D8A42AD0000E266EC2
:10065000000E256E26BE06D026501DE1040E255C38
:10066000D8B019D0F10E2524F66EFE0E2620F76EB6
:10067000F86A000EF8228A0E2524D96E000E262074
:10068000DA6E0800F5CFDFFF254A262A26BEEAD714
:10069000265001E1E3D7EDC02AF0EEC02BF029D0BF
:1006A000000E286E000E276E28BE06D028501DE1D1
:1006B000040E275CD8B019D0EC0E2724F66EFE0E7F
:1006C0002820F76EF86A000EF8228A0E2724D96EC9
:1006D000000E2820DA6E0800F5CFDFFF274A282A0F
:1006E00028BEEAD7285001E1E3D7EBC02AF0ECC0DE
:1006F0002BF02BAE08D02D0E0001606F2A6C2B1E44
:10070000D8B02B2A03D0200E0001606F2AC018F049
:100710002BC019F0000E1B6E640E1A6E90EC8CF05C
:100720001850300F0001616F000E156E640E146ECC
:100730002AC012F02BC013F04EEC8DF012C018F04E
:1007400013C019F0000E1B6E0A0E1A6E90EC8CF09E
:100750001850300F0001626F2AC012F02BC013F046
:10076000000E156E0A0E146E4EEC8DF01250300F06
:100770000001636F0C0E296E100E296401D0120067
:10078000F40E206EFF0E216E2950226E236A205037
:10079000222621502322600E2224D96E000E23200F
:1007A000DA6E2950010D8A0EF324E16E000EF4205A
:1007B000E26EDFCFE7FF292ADFD7A0C0A2F0000159
:1007C000A36BA46B00019F350001A23701E3A38155
:1007D0000001A2510001AC6F0001AC51D8A40AD0B5
:1007E000000E00019E6F000E9F6F000EA06F000EA6
:1007F000A16F1200170E0001A26F9EC0A3F09FC050
:10080000A4F0A0C0A5F00001A2290001A66F05D0A8
:100810000001D890A533A433A3330001A62FF8D745
:100820000001A3510001A76F00019F8FFF0E00017F
:100830009E17FF0E00019F17000E0001A017000178
:100840009E510001A86F00019F510001A96F000196
:10085000A0510001AA6F0001AB6B8E0E0001AC5FCE
:100860000001ACAF1AD00001AC51800A8F0FD8B094
:100870000AD0000E00019E6F000E9F6F000EA06F49
:10088000000EA16F12000001D890AB33AA33A93338
:10089000A8330001AC3FF7D71BD0170E0001AC65A1
:1008A00012D0000E00019E6F000E9F6F000EA06F11
:1008B000000EA16F12000001D890A837A937AA37FF
:1008C000AB370001AC070001AC510001D8A4F3D74D
:1008D0000001A7510001D8B409D00001AB1FAA1F25
:1008E000A91FA86D000EA923AA23AB23A8C09EF0C0
:1008F000A9C09FF0AAC0A0F0ABC0A1F012000001F7
:10090000B6AF0FD0000E0001E26F210EE16F000EB6
:100910000001B46F000E0001B56F000E0001B66F4C
:1009200012000001B4510001B5110001B611D8A4A4
:100930000FD0000E0001E26F220EE16F000E0001E9
:10094000B46F000E0001B56F000E0001B66F12000B
:10095000000E306E000E316E400E326EB70E156E08
:10096000000E166EB4C012F0B5C013F0B6C014F08D
:1009700048EC8CF012C02DF013C02EF014C02FF0F4
:1009800073EC88F02DC09EF02EC09FF02FC0A0F019
:10099000000E0001A16F800E0001A26FBF0E0001CA
:1009A000A36F00EC80F09EC0B4F09FC0B5F0A0C073
:1009B000B6F00001B707D8A0B807B4C0AAF0B5C018
:1009C000ABF0B6C0ACF08D0E0001AD6FFF0E0001B4
:1009D000AE6F000E0001B06F080EAF6FD5EC89F05E
:1009E000AAC0B4F0ABC0B5F0ACC0B6F0720E306EB9
:1009F000310E316E3F0E326EB7C01AF0B8C01BF028
:100A0000D6EC8EF01AC02DF01BC02EF01CC02FF0BB
:100A100073EC88F02DC09EF02EC09FF02FC0A0F088
:100A2000B4C0A1F0B5C0A2F0B6C0A3F000EC80F055
:100A30009EC0B4F09FC0B5F0A0C0B6F01200819681
:100A40000001F6510001D8A404D0000EC96E0001C7
:100A5000F62B73A012000001F505D8A402D0000106
:100A6000F92B020E0001F519D8A402D00001F907F4
:100A7000F9C0C9FF000E0001F66F0001F95184ECC6
:100A80008FF01AC0C9F01BC0CAF01CC0CBF03B0EDF
:100A90000001C66F700E0001C76F3F0E0001C86FE6
:100AA0004BEC82F0C6C0A7F1C7C0A8F1C8C0A9F13D
:100AB000000E0001A16F7A0E0001A26F440E00012A
:100AC000A36F510E306EC30E316E430E326E0001B5
:100AD000F951020DF3CF1AF0F4CF1BF0D6EC8EF0E3
:100AE0001AC02DF01BC02EF01CC02FF073EC88F044
:100AF0002DC09EF02EC09FF02FC0A0F000EC80F023
:100B00009EC0AAF19FC0ABF1A0C0ACF1A7C130F06C
:100B1000A8C131F0A9C132F0AAC12DF0ABC12EF0AD
:100B2000ACC12FF073EC88F02DC0ADF12EC0AEF14A
:100B30002FC0AFF1520E1E6EB80E1F6E3F0E206E0C
:100B4000FF0E306E960E316E390E326EADC12DF045
:100B5000AEC12EF0AFC12FF073EC88F02DC021F0A4
:100B60002EC022F02FC023F062EC89F01EC0FAF0F4
:100B70001FC0FBF020C0FCF0120048C017F049C0B5
:100B800018F0030E1A6EE80E196E47EC8EF017502F
:100B9000300F0001836F030E156EE80E146E48C00F
:100BA00012F049C013F096EC8EF012C017F013C08B
:100BB00018F0000E1A6E640E196E47EC8EF0175086
:100BC000300F0001846F000E156E640E146E48C065
:100BD00012F049C013F096EC8EF012C017F013C05B
:100BE00018F0000E1A6E0A0E196E47EC8EF01750B0
:100BF000300F0001856F48C012F049C013F0000E9D
:100C0000156E0A0E146E96EC8EF01250300F000125
:100C1000866F40C017F041C018F0030E1A6EE80E40
:100C2000196E47EC8EF01750300F0101A06F030EC4
:100C3000156EE80E146E40C012F041C013F096EC31
:100C40008EF012C017F013C018F0000E1A6E640E6A
:100C5000196E47EC8EF01750300F0101A16F000E96
:100C6000156E640E146E40C012F041C013F096EC85
:100C70008EF012C017F013C018F0000E1A6E0A0E94
:100C8000196E47EC8EF01750300F0101A26F40C073
:100C900012F041C013F0000E156E0A0E146E96ECA1
:100CA0008EF01250300F0101A36F1200000E736E10
:100CB000320E726E010E936E000E946E010E926EE5
:100CC00081840F0EC16E96EC8FF00001F95184EC17
:100CD0008FF01AC0C9F01BC0CAF01CC0CBF03B0E8D
:100CE0000001C66F700E0001C76F3F0E0001C86F94
:100CF0004BEC82F0C6C0A7F1C7C0A8F1C8C0A9F1EB
:100D0000000E0001A16F7A0E0001A26F440E0001D7
:100D1000A36F510E306EC30E316E430E326E000162
:100D2000F951020DF3CF1AF0F4CF1BF0D6EC8EF090
:100D30001AC02DF01BC02EF01CC02FF073EC88F0F1
:100D40002DC09EF02EC09FF02FC0A0F000EC80F0D0
:100D50009EC0AAF19FC0ABF1A0C0ACF1A7C130F01A
:100D6000A8C131F0A9C132F0AAC12DF0ABC12EF05B
:100D7000ACC12FF073EC88F02DC0ADF12EC0AEF1F8
:100D80002FC0AFF1520E1E6EB80E1F6E3F0E206EBA
:100D9000FF0E306E960E316E390E326EADC12DF0F3
:100DA000AEC12EF0AFC12FF073EC88F02DC021F052
:100DB0002EC022F02FC023F062EC89F01EC0FAF0A2
:100DC0001FC0FBF020C0FCF012000001B451000174
:100DD000B5110001B611D8A40AD0000E0001B46FFD
:100DE000000E0001B56F000E0001B66F1200000189
:100DF000B6517F0B0001B96FBA6BD8900001B937BB
:100E0000BA370001B9510001B7270001BA510001FA
:100E1000B8230001B5AF04D00001B96BB92B02D0E3
:100E20000001B96B0001B9510001B727000EB823CA
:100E30000001B8AF0FD0000E0001E26F220EE16F8B
:100E4000000E0001B46F000E0001B56F000E00012E
:100E5000B66F12000001B8BF1CD00001B805D8A0C1
:100E600018D0000E0001E26F220EE16F0001B6AF54
:100E700008D0FF0E0001B46F7F0E0001B56FFF0EAA
:100E8000E6D7FF0E0001B46F7F0E0001B56F7F0E35
:100E9000DED70001B835B8310001BA6F0001B731B3
:100EA0000001B96F0001B6510001B919800BB919E1
:100EB0000001B66FB7C0B9F0010E0001B91700010B
:100EC000B933B9330001B5510001B9197F0BB91914
:100ED0000001B56FB4C0B4F0B5C0B5F0B6C0B6F09F
:100EE00012008FAA40D046C044F047C045F00F0121
:100EF0000851026E016A0F0107510124466E000E6F
:100F00000220476E44C001F045C002F0011E021EDF
:100F1000014A022A4650012647500222040E036E5F
:100F2000D89002320132032EFBD7400E015C060E30
:100F30000258D8B017D044C001F045C002F0011EDD
:100F4000021E014A022A4650012647500222040E80
:100F5000036ED89002320132032EFBD701C048F055
:100F600002C049F08F9A8FA812003EC0DDF03FC04A
:100F7000DEF00F010B51026E016A0F010A510124CC
:100F80003E6E000E02203F6EDDC001F0DEC002F0BA
:100F9000011E021E014A022A3E5001263F50022233
:100FA000040E036ED89002320132032EFBD7400E9E
:100FB000015C060E0258D8B017D0DDC001F0DEC0CB
:100FC00002F0011E021E014A022A3E5001263F5035
:100FD0000222040E036ED89002320132032EFBD798
:100FE00001C040F002C041F08F981200B5C012F06D
:100FF000B6C013F0B7C014F0BB0E156E000E166E1F
:1010000048EC8CF00001BCAF17D00001B7AF0AD09C
:10101000000E0001B56F800E0001B66FBF0E00011B
:10102000B76F1200000E0001B56F000E0001B66F21
:10103000000E0001B76F12000001BC5105E1150E52
:101040000001BB5DD8A007D0B5C0B5F0B6C0B6F002
:10105000B7C0B7F01200B5C09EF0B6C09FF0B7C0E1
:10106000A0F0DDEC83F09EC0ADF09FC0AEF0A0C05C
:10107000AFF0A1C0B0F0FDEC8BF0ADC0B8F0AEC0E9
:10108000B9F0AFC0BAF0B5C09EF0B6C09FF0B7C01F
:10109000A0F0B8C0A1F0B9C0A2F0BAC0A3F045EC6E
:1010A0008AF00001D8B018D0B8C09EF0B9C09FF047
:1010B000BAC0A0F0000E0001A16F800E0001A26F67
:1010C000BF0E0001A36F00EC80F09EC0B5F09FC082
:1010D000B6F0A0C0B7F01200B8C0B5F0B9C0B6F015
:1010E000BAC0B7F012002FC033F0346A356A2E341C
:1010F000333601E334803350366E3650D8A407D0EF
:10110000000E2D6E000E2E6E000E2F6E120032C0DD
:1011100033F0346A356A3134333601E33480335086
:101120003B6E3B50D8A407D0000E2D6E000E2E6EE5
:10113000000E2F6E12003B507B0F36262FC03BF067
:1011400032503B1A800E3B162E8E318EFF0E30161B
:10115000FF0E3116000E3216000E376E000E386E7E
:10116000000E396E070E3A6E2DA006D0305037268D
:101170003150382232503922D8902F322E322D322F
:10118000D8903036313632363A2EEED7090E3A6ED6
:101190002DA006D030503726315038223250392217
:1011A000D8902F322E322D32D89039323832373211
:1011B0003A2EEED737C012F038C013F039C014F011
:1011C00036C015F03BC016F002EC8BF012C02DF0CB
:1011D00013C02EF014C02FF01200D388D380D38216
:1011E000010E0001656FD2EC8CF0A6EC8FF023ECC1
:1011F0008FF0C9EC8FF056EC86F0F7C012F0F8C013
:1012000013F0F7C014F0F8C015F03AEC8FF012C0EC
:10121000B0F113C0B1F1B0C112F0B1C113F0000EC2
:10122000156E280E146E3AEC8FF012C0FDF013C04C
:10123000FEF0010EC1EC8FF0BDEC8DF0000EC1ECA4
:101240008FF0030E136E200E126EF2EC8EF0BDECDA
:1012500085F0660E176E000E186E13EC8DF0030EFF
:10126000136E200E126EF2EC8EF0820E176E010ECF
:10127000186E13EC8DF0030E136E200E126EF2EC4E
:101280008EF0000E1CEC8EF08A0E176E000E186E9B
:1012900013EC8DF0030E136E200E126EF2EC8EF036
:1012A000010E1CEC8EF08A0E176E000E186E13ECF9
:1012B0008DF0030E136E200E126EF2EC8EF059ECD0
:1012C0008BF09BD720C024F0256A266A1F34243671
:1012D00001E3258024502B6E2B50D8A407D0000E9C
:1012E0001E6E000E1F6E000E206E120023C024F032
:1012F000256A266A2234243601E3258024502C6E88
:101300002C50D8A407D0000E1E6E000E1F6E000ECB
:10131000206E1200000E286E000E296E000E2A6E3E
:101320002C50890F2B5E20C02CF023502C1A800EDD
:101330002C161F8EFF0E1E16FF0E1F16000E2016F7
:10134000228EFF0E2116FF0E2216000E2316180EF7
:10135000276ED890283629362A3621501E5C225016
:101360001F5823502058D8A007D021501E5E22506D
:101370001F5A2350205A2880D8901E361F362036F8
:10138000272EE7D728C012F029C013F02AC014F086
:101390002BC015F02CC016F002EC8BF012C01EF022
:1013A00013C01FF014C020F01200AFC012F0B0C084
:1013B00013F0000E156E030E146E3AEC8FF0ADC0F4
:1013C0003CF0AEC03DF012503C2613503D223CC0D4
:1013D000F6FF3DC0F7FF000EF86E0900F5CFB1F043
:1013E0000900F5CFB2F00A00F5CFB3F041D0B1C09B
:1013F00030F0B2C031F0B3C032F0AAC02DF0ABC0B3
:101400002EF0ACC02FF073EC88F02DC09EF02EC0F3
:101410009FF02FC0A0F0000E156E030E146E000199
:10142000AF07D8A0B007AFC012F0B0C013F03AECCD
:101430008FF0ADC03CF0AEC03DF012503C261350D2
:101440003D223CC0F6FF3DC0F7FF000EF86E0900DC
:10145000F5CFA1F00900F5CFA2F00A00F5CFA3F077
:1014600000EC80F09EC0B1F09FC0B2F0A0C0B3F01D
:101470000001AF510001B011D8A4B9D7B1C0AAF092
:10148000B2C0ABF0B3C0ACF012000001A0AF1DD0F1
:101490009EC0A4F09FC0A5F0A0C0A6F00001A41FAC
:1014A000A51FA61FA42B000EA523A623000E000136
:1014B000A42500019E6F000E0001A52100019F6F71
:1014C000800E0001A6210001A06F0001A3AF1DD076
:1014D000A1C0A4F0A2C0A5F0A3C0A6F00001A41F63
:1014E000A51FA61FA42B000EA523A623000E0001F6
:1014F000A4250001A16F000E0001A5210001A26F2B
:10150000800E0001A6210001A36F000E00019E1BAA
:10151000000E00019F1B800E0001A01B000E0001A9
:10152000A11B000E0001A21B800E0001A31B0001E5
:10153000A15100019E5D0001A25100019F590001CF
:10154000A3510001A059D8B002D0D8901200D88081
:101550001200AFC03CF0B0C03DF03C1E3D1E3C4A06
:101560003D2A0001AD513C240001B46F0001AE5191
:101570003D200001B56FE00E306E2B0E316E450E32
:10158000326E000E216E800E226E440E236EB4C0A9
:101590001AF0B5C01BF0D6EC8EF01AC01EF01BC0BE
:1015A0001FF01CC020F062EC89F01EC02DF01FC09F
:1015B0002EF020C02FF073EC88F02DC0B1F02EC0BB
:1015C000B2F02FC0B3F0000E216E200E226E410E3D
:1015D000236EB1C01EF0B2C01FF0B3C020F062ECA9
:1015E00089F01EC09EF01FC09FF020C0A0F0DDEC6F
:1015F00083F09EC0B4F09FC0B5F0B4C0ADF0B5C0EC
:10160000AEF012001550D8B405D0125013101410BB
:10161000D8A40CD0000E126E000E136E000E146EC5
:101620001200152AD890143213321232000E1214FE
:10163000176E000E1314186EFE0E1414196E175048
:1016400018101910D8B40CD0ECD7152A010E122698
:10165000000E1322000E1422D890143213321232CC
:10166000000E1214176E000E1314186EFF0E1414D1
:10167000196E175018101910D8B406D0E6D71506F1
:10168000D89012361336143613BE03D0020E1560EE
:10169000F6D715A0139ED890153215501412165077
:1016A000D8A4148E12C012F013C013F014C014F09A
:1016B0001200B4EC8FF0390E306E840E316E3F0E96
:1016C000326EFAC02DF0FBC02EF0FCC02FF073EC90
:1016D00088F02DC09EF02EC09FF02FC0A0F0D7C084
:1016E000A1F0D8C0A2F0D9C0A3F045EC8AF0000167
:1016F000D8B005D0010E0001F56F1FEC85F0D7C002
:101700009EF0D8C09FF0D9C0A0F01D0E306E780EAC
:10171000316E3F0E326EFAC02DF0FBC02EF0FCC0D1
:101720002FF073EC88F02DC0A1F02EC0A2F02FC0D6
:10173000A3F045EC8AF00001D8B00AD00001F951BD
:10174000D8B406D0020E0001F56F1FEC85F0120030
:1017500081B61200CDEC8FF012009EAC12009E9C60
:1017600035D0C3CFE9F0C4CFEAF0C250C30B200993
:10177000C26E000E0001E06F010E26D0C3CFE5F06F
:10178000C4CFE6F0C250C30B0409C26E000E0001C4
:10179000E06F020E19D0C3CFE7F0C4CFE8F0C294D7
:1017A000C296C298C29A000E0001E06F030E0CD0E0
:1017B000C3CFE3F0C4CFE4F0C250C30B2409C26E20
:1017C000000E0001E06F000EDF6F15D0DFC001F0EA
:1017D000E0C002F00250000AD8A40DD00150000A67
:1017E000D8B4BFD7010AD8B4C9D7030AD8B4D3D75D
:1017F000010AD8B4DDD7C2821200000E3D6E8E0EF3
:101800003C6E0001B0AF13D00001B01FAF1FAE1F80
:10181000AD6D000EAE23AF23B023010E3D6E07D099
:101820000001D890B033AF33AE33AD333C2A000E55
:101830000001AD150001B16F000E0001AE150001F1
:10184000B26F000E0001AF150001B36FFF0E000173
:10185000B0150001B46F0001B1510001B2110001D7
:10186000B3110001B411D8A4DBD7ADC012F0AEC0E3
:1018700013F0AFC014F03CC015F03DC016F002EC00
:101880008BF012C0ADF013C0AEF014C0AFF0120078
:10189000125013101410D8A40FD015C0D9FF16C0C1
:1018A000DAFF000EDE6E000EDD6E000E126E000E10
:1018B000136E000E146E120014507F0B176E186A10
:1018C000D8901736183615C0D9FF16C0DAFF17C0E2
:1018D000DEFF18C0DDFF13AE03D0176A172A01D050
:1018E000176A175015C0D9FF16C0DAFFDE12000EB6
:1018F000DD1215C0D9FF16C0DAFF820EDE26FF0EFC
:10190000DD2214801482148414861488148A149C92
:10191000139E12C012F013C013F014C014F0120082
:10192000000E1D6E1BAE06D01A6C1B1ED8B01B2AF3
:10193000010E1D6E19AE06D0186C191ED8B0192AEA
:10194000010E1D1A000E1F6E000E1E6E1A501B1087
:10195000D8B41CD0010E1C6E04D0D8901A361B3699
:101960001C2A1BAEFAD7D8901E361F361A50185CA8
:101970001B501958D8A005D01A50185E1B50195A80
:101980001E80D8901B321A321C2EEDD71D50D8B4B1
:1019900004D01E6C1F1ED8B01F2A1EC018F01FC016
:1019A00019F0120094820F0150930F0150918E8A0A
:1019B0008F9A070E0F01066FF28ECD82CD80CD8CEF
:1019C000CD9ECD9ACD98CD96000ECE6E000ECF6EE8
:1019D000000E0F01086F000E0F01076F938E0F01AD
:1019E000519D0F01518F8E888F98070E0F01096F3F
:1019F0000F0122830F0122810F01228D0F01229FEF
:101A00000F01229B0F0122990F012297000E0F0157
:101A1000236F000E0F01246F000E0F010B6F000EDD
:101A20000F010A6F120017C042F018C043F04CC0FB
:101A30004AF04DC04BF0AD8A1CD09EA81AD042C0CF
:101A4000F6FF43C0F7FF000EF86E0E0EF76403D0EA
:101A50000800F55005D0F6CFE9FFF7CFEAFFEF50C9
:101A6000AE6E424A432A000E136E010E126EF2EC65
:101A70008EF042C0F6FF43C0F7FF000EF86E0E0E68
:101A8000F76403D00800F55005D0F6CFE9FFF7CF93
:101A9000EAFFEF500009D8B41200CFD7000E176E3E
:101AA00013AE06D0126C131ED8B0132A010E176E97
:101AB00015AE04D0146C151ED8B0152A145015108C
:101AC000D8B418D0010E166E04D0D890143615363E
:101AD000162A15AEFAD71450125C15501358D8A018
:101AE00004D01450125E1550135AD8901532143287
:101AF000162EF1D71750D8B404D0126C131ED8B0DC
:101B0000132A12C012F013C013F0120001EE00F0FD
:101B1000820EEE6AE806FDE100EED7F0230EEE6AD3
:101B2000E806FDE100EE3EF0100EEE6AE806FDE18B
:101B30009A0EF66E1E0EF76E010EF86E01EE82F032
:101B400010EE25F00900F5CFEEFFE550E150FAE187
:101B50006E0EF66E1D0EF76E010EF86E00EE60F062
:101B600010EE3EF00900F5CFEEFFE550E150FAE14E
:101B70004E904E920001EDEF88F04D0E176EFF0E65
:101B8000186E13EC8DF0030E136E200E126EF2EC35
:101B90008EF02B0E176EFF0E186E13EC8DF0030EE9
:101BA000136E200E126EF2EC8EF0F90E176EFE0E12
:101BB000186E13EC8DF00B0E136EB80E126EF2EC65
:101BC0008EF0A80E176EFF0E186E13EC8DF00B0E34
:101BD000136EB80E126EF2EC8EF012008E0E226EA4
:101BE00006D0D8901D321C321B321A32222A000E27
:101BF0001A141E6E000E1B141F6E000E1C14206E95
:101C0000FF0E1D14216E1E501F1020102110D8A48D
:101C1000E8D71AC012F01BC013F01CC014F022C089
:101C200015F0000E166E02EC8BF012C01AF013C005
:101C30001BF014C01CF012000001B66F0001B65179
:101C40000001D8A412D0E9C0ADF0EAC0AEF0E5C002
:101C5000AFF0E6C0B0F0A9EC8AF0ADC0EDF0AEC0D8
:101C6000EEF0000E22EC83F01200E7C0ADF0E8C009
:101C7000AEF0E3C0AFF0E4C0B0F0A9EC8AF0ADC0C4
:101C8000EBF0AEC0ECF0010E22EC83F01200000E7F
:101C90001D6E000E1C6E19501A10D8B41CD0010E07
:101CA0001B6E04D0D89019361A361B2A1AAEFAD7F2
:101CB000D8901C361D361950175C1A501858D8A0E9
:101CC00005D01950175E1A50185A1C80D8901A3235
:101CD00019321B2EEDD71CC017F01DC018F01200D2
:101CE0000001AD510001AE110001AF11D8B409D00F
:101CF000000E0001AD1B000E0001AE1B800E0001A6
:101D0000AF1BAAC09EF0ABC09FF0ACC0A0F0ADC0AE
:101D1000A1F0AEC0A2F0AFC0A3F000EC80F09EC076
:101D2000AAF09FC0ABF0A0C0ACF012001450151088
:101D3000D8B418D0010E166E04D0D89014361536CB
:101D4000162A15AEFAD71450125C15501358D8A0A5
:101D500004D01450125E1550135AD8901532143214
:101D6000162EF1D712C012F013C013F0120020206B
:101D70002020200154686520696E6475637469765B
:101D800065206672657175656E63792069733A20A6
:101D900020202020200D0A00506970652074656D98
:101DA00070203D2020202020200D0A00000E1D6EF6
:101DB0001BAE06D01A6C1B1ED8B01B2A010E1D6E5E
:101DC0001AC012F01BC013F0146A8E0E156E1DC0DF
:101DD00016F002EC8BF012C01AF013C01BF014C006
:101DE0001CF01200000E166E000E156E09D0030EC8
:101DF000146E980EE82EFED7142EFCD7154A162A1C
:101E00001250155C1650800A146E1350800A145834
:101E1000D8B01200ECD79EAA12009E9A000E4C2455
:101E2000D96E010E4D20DA6EAFCFDFFF4C4A4D2A3E
:101E30004D5004E1650E4C5CD8A01200000E4D6EB2
:101E4000000E4C6E1200928092828090809281905F
:101E5000938081929382FC0E0F01486F1C0E0F013C
:101E6000496F000EC26EBE0EC16EC2809E9C9D9CCC
:101E7000C282120012501402F3CF16F0F4CF17F002
:101E800012501502F350172613501402F350172660
:101E900016C012F017C013F0120054686520636179
:101EA0007061636974697665206672657175656EC7
:0F1EB00063792069733A2020202020200D0A003A
:101EC0001AC012F01BC013F0146A8E0E156E000EAD
:101ED000166E02EC8BF012C01AF013C01BF014C087
:101EE0001CF01200125013101410D8B406D0000EBB
:101EF000121A000E131A800E141A12C012F013C018
:101F000013F014C014F012001D6E1D50126E136AEF
:101F1000146A8E0E156E000E166E02EC8BF012C057
:101F20001AF013C01BF014C01CF01200550EA76E5F
:101F3000AA0EA76E0E01BF91080E0E01FC6F0B0ECC
:101F40000E01C76F0A0E0E01C96F1200948E949C89
:101F5000AD847E86000E7F6E220EB06EAD98AC8E84
:101F60009D989D8AAC88120040C01AF041C01BF0B9
:101F700060EC8FF01AC0D7F01BC0D8F01CC0D9F0AD
:101F80001200126E1204D8A402D0AC881200AC98D1
:0E1F90001200C00EF26ED09E1200818612006A
:08FFF800AEF7FAFFFFFBFFFB6F
:00000001FF
