:0400000045EF00F0D8
:100008004E82FACF04F0FBCF05F0E9CF06F0EACF35
:1000180007F0E1CF08F0E2CF09F0D9CF0AF0DACF44
:100028000BF0F3CF0CF0F4CF0DF0F6CF0EF0F7CFC6
:100038000FF0F8CF10F0F5CF11F083EC8AF038EC20
:100048008EF0B3EC8BF011C0F5FF10C0F8FF0FC0B5
:10005800F7FF0EC0F6FF0DC0F4FF0CC0F3FF0BC096
:10006800DAFF0AC0D9FF09C0E2FF08C0E1FF07C0F4
:10007800EAFF06C0E9FF05C0FBFF04C0FAFF4E9285
:0600880011005EEF8DF097
:10FEC600006D61632073657420647220780D0A00EA
:10FED60073797320676574207665720D0A000100D8
:10FEE600100000010010416D622E0050697065001F
:10FEF600FDD3E86D616320736574206170706B6576
:10FF06007920324531354146433934413745463605
:10FF16003941453631413831343733374333383652
:10FF260039390D0A006D6163207365742061707044
:10FF360065756920373443353432343533383537CF
:10FF4600393734410D0A006D61632073657420648E
:10FF56006576657569203030303441333042303053
:10FF66003141434637440D0A0000803F72313FFE5F
:10FF7600753E58633D951D3CC5AE3A79213994804E
:10FF86003793A73556153400000000803FF0FFBEBA
:10FF9600E2A93E8376BEAE2B3E3CC3BDD2133D786E
:10FFA600D3BB6D6163206A6F696E206F7461610DEA
:10FFB6000A006D616320747820636E662031202507
:10FFC60078257325782573257825732578200D0ADD
:10FFD600003031323334353637383961626364651F
:10FFE60066006D616320747820636E6620312000A0
:0AFFF600286E756C6C29005F000096
:020000040001F9
:1000000062C066F00001676B686B0001613500013A
:10001000663701E367810001665100016B6F65C0BF
:1000200066F00001676B686B00016435000166379C
:1000300001E367810001665100016A6F00016B51A5
:100040000001D8B411D000016A5100016B5DD8B035
:1000500012D000016B51000800016A250001666F93
:10006000180E0001666507D063C060F064C061F0DF
:1000700065C062F0120000016A510001D8B411D0CD
:1000800000016B5100016A5DD8B012D000016A51C5
:10009000000800016B250001666F180E00016665FF
:1000A00007D060C060F061C061F062C062F0120011
:1000B000060E0001696F000162AF02D00001698F76
:1000C000000165AF02D00001698D0001618FFF0E54
:1000D00000016017FF0E00016117000E000162179A
:1000E0000001648FFF0E00016317FF0E000164170B
:1000F000000E0001651700016A5100016B5DD8B068
:1001000025D00001D89063376437653700016A074E
:1001100000016B5100016A19D8B411D000016907C0
:1001200069C066F0070E00016617D8B408D0E9D799
:100130000001D89062336133603300016B2B000102
:100140006A5100016B19D8B42BD0F2D700016B5162
:1001500000016A5DD8B024D00001D89060376137C3
:10016000623700016B0700016B5100016A19D8B4B6
:1001700011D00001690769C066F0070E000166171B
:10018000D8B408D0E9D70001D8906533643363331D
:1001900000016A2B00016A5100016B19D8A4F3D742
:1001A000000169AF12D0FF0E0001601BFF0E0001BD
:1001B000611BFF0E0001621B010E00016027000E93
:1001C00000016123000E00016223000169AD12D01D
:1001D000FF0E0001631BFF0E0001641BFF0E0001F8
:1001E000651B010E00016327000E00016423000E51
:1001F00000016523000E0001696F000160510001DC
:100200006327000161510001642300016251000174
:100210006523000165AF15D0FF0E0001631BFF0EC3
:100220000001641BFF0E0001651B010E0001632726
:10023000000E00016423000E00016523010E000181
:10024000696F63C012F064C013F065C014F06BC036
:1002500015F069C016F0D8EC89F012C060F013C038
:1002600061F014C062F0120000017F5100018011A2
:1002700000018111D8A40AD0000E00017F6F800E0A
:100280000001806F3F0E0001816F1200720E0001AD
:10029000606F310E0001616F440E0001626F7FC01C
:1002A00063F080C064F081C065F01BEC89F0000150
:1002B000D8B00FD0000E0001E16F220EE06FFF0EEC
:1002C00000017F6F7F0E0001806F7F0E0001816F44
:1002D00012007FC060F080C061F081C062F0490E02
:1002E0000001636F3A0E0001646FC40E0001656F78
:1002F0001BEC89F00001D8B00FD0000E0001E16FB7
:10030000220EE06F000E00017F6F000E0001806F73
:10031000000E0001816F1200000181AF02D0010EBA
:1003200001D0000E0001876F000187510001D8B491
:100330000ED07FC012F080C013F081C014F07AECB0
:100340008EF012C07FF013C080F014C081F07FC027
:100350002DF080C02EF081C02FF0AA0E306EB80EA6
:10036000316E3F0E326E55EC87F02DC07FF02EC0FF
:1003700080F02FC081F07FC077F080C078F081C01E
:1003800079F0D8EC86F077C082F078C083F079C03D
:1003900084F082C060F083C061F084C062F0DDEC64
:1003A00083F060C085F061C086F07FC06CF080C0D3
:1003B0006DF081C06EF085C01AF086C01BF0E9ECCC
:1003C0008DF01AC06FF01BC070F01CC071F085EC8E
:1003D0008DF06CC07FF06DC080F06EC081F07FC08A
:1003E0006CF080C06DF081C06EF06F0E00016F6F19
:1003F000FF0E0001706F000E0001726F090E716F29
:1004000042EC88F06CC076F06DC077F06EC078F08A
:1004100085C079F086C07AF04CEC86F076C07FF02B
:1004200077C080F078C081F0000187510001D8B416
:100430002BD000017F2913E17F0E000180190FE10D
:100440007F0E00018119D8A40AD0000E00017F6F31
:10045000000E0001806F000E0001816F1200000E7F
:100460001E6E800E1F6E3F0E206E7FC021F080C07A
:1004700022F081C023F0CFEC87F01EC07FF01FC0B8
:1004800080F020C081F012007FC07FF080C080F03B
:1004900081C081F01200000E0001946F00018851AC
:1004A0000001891100018A11D8A423D0000E000197
:1004B000606F000E0001616F000E0001626F8BC063
:1004C00063F08CC064F08DC065F01BEC89F0000116
:1004D000D8A005D0000E0001E16F210EE06F000EE4
:1004E0000001886F000E0001896F000E00018A6F05
:1004F000120000018B5100018C1100018D11D8A454
:100500000AD0000E0001886F800E0001896F3F0E37
:1005100000018A6F120000018AAF49D08BC060F0E1
:100520008CC061F08DC062F0DDEC83F060C095F0AE
:1005300061C096F062C097F063C098F095C01AF061
:1005400096C01BF097C01CF098C01DF0DCEC8CF03E
:1005500000018B511A1809E100018C511B1805E1AB
:1005600000018D511C18D8B40FD0000E0001E16FAE
:10057000210EE06F000E0001886F000E0001896FF0
:10058000000E00018A6F120000019551010B00015D
:10059000946F88C012F089C013F08AC014F07AEC0E
:1005A0008EF012C088F013C089F014C08AF088C0A1
:1005B00076F089C077F08AC078F07FEC84F076C05E
:1005C0008EF077C08FF078C090F08EC02DF08FC085
:1005D0002EF090C02FF08BC030F08CC031F08DC069
:1005E00032F055EC87F02DC091F02EC092F02FC064
:1005F00093F091C07FF092C080F093C081F034EC12
:1006000081F07FC088F080C089F081C08AF000014D
:1006100094510001D8B40FD088C012F089C013F0F3
:100620008AC014F07AEC8EF012C088F013C089F002
:1006300014C08AF0120088C088F089C089F08AC08E
:100640008AF01200246E2450D8A42AD0000E266E00
:10065000000E256E26BE06D026501DE1040E255C38
:10066000D8B019D0F10E2524F66EFE0E2620F76EB6
:10067000F86A000EF822C40E2524D96E000E26203A
:10068000DA6E0800F5CFDFFF254A262A26BEEAD714
:10069000265001E1E3D7E6C02AF0E7C02BF029D0CD
:1006A000000E286E000E276E28BE06D028501DE1D1
:1006B000040E275CD8B019D0EC0E2724F66EFE0E7F
:1006C0002820F76EF86A000EF822C40E2724D96E8F
:1006D000000E2820DA6E0800F5CFDFFF274A282A0F
:1006E00028BEEAD7285001E1E3D7E4C02AF0E5C0EC
:1006F0002BF02BAE08D02D0E0001A46F2A6C2B1E00
:10070000D8B02B2A03D0200E0001A46F2AC018F005
:100710002BC019F0000E1B6E640E1A6EF6EC8BF0F7
:100720001850300F0001A56F000E156E640E146E88
:100730002AC012F02BC013F073EC8CF012C018F02A
:1007400013C019F0000E1B6E0A0E1A6EF6EC8BF039
:100750001850300F0001A66F2AC012F02BC013F002
:10076000000E156E0A0E146E73EC8CF01250300FE2
:100770000001A76F0C0E296E100E296401D0120023
:10078000F40E206EFF0E216E2950226E236A205037
:10079000222621502322A40E2224D96E000E2320CB
:1007A000DA6E2950010DC40EF324E16E000EF42020
:1007B000E26EDFCFE7FF292ADFD762C064F00001D5
:1007C000656B666B000161350001643701E365818B
:1007D0000001645100016E6F00016E51D8A40AD06F
:1007E000000E0001606F000E616F000E626F000E60
:1007F000636F1200170E0001646F60C065F061C086
:1008000066F062C067F0000164290001686F05D0DE
:100810000001D8906733663365330001682FF8D73D
:10082000000165510001696F0001618FFF0E000139
:100830006017FF0E00016117000E00016217000132
:10084000605100016A6F0001615100016B6F00018E
:10085000625100016C6F00016D6B8E0E00016E5FC6
:1008600000016EAF1AD000016E51800A8F0FD8B010
:100870000AD0000E0001606F000E616F000E626F03
:10088000000E636F12000001D8906D336C336B3330
:100890006A3300016E3FF7D71BD0170E00016E655B
:1008A00012D0000E0001606F000E616F000E626FCB
:1008B000000E636F12000001D8906A376B376C37F7
:1008C0006D3700016E0700016E510001D8A4F3D707
:1008D000000169510001D8B409D000016D1F6C1FDF
:1008E0006B1F6A6D000E6B236C236D236AC060F072
:1008F0006BC061F06CC062F06DC063F0120000016B
:1009000078AF0FD0000E0001E16F210EE06F000EF6
:100910000001766F000E0001776F000E0001786F06
:100920001200000176510001771100017811D8A45E
:100930000FD0000E0001E16F220EE06F000E0001EB
:10094000766F000E0001776F000E0001786F1200C5
:10095000000E306E000E316E400E326E790E156E46
:10096000000E166E76C012F077C013F078C014F047
:100970006BEC8BF012C02DF013C02EF014C02FF0D2
:1009800055EC87F02DC060F02EC061F02FC062F0F2
:10099000000E0001636F800E0001646FBF0E000146
:1009A000656F00EC80F060C076F061C077F062C0E7
:1009B00078F000017907D8A07A0776C06CF077C08C
:1009C0006DF078C06EF08D0E00016F6FFF0E0001AC
:1009D000706F000E0001726F080E716F42EC88F0AC
:1009E0006CC076F06DC077F06EC078F0720E306E2D
:1009F000310E316E3F0E326E79C01AF07AC01BF0A4
:100A0000E9EC8DF01AC02DF01BC02EF01CC02FF0A9
:100A100055EC87F02DC060F02EC061F02FC062F061
:100A200076C063F077C064F078C065F000EC80F0C9
:100A300060C076F061C077F062C078F012008196F5
:100A40000001EF510001D8A404D0000EC96E0001CE
:100A5000EF2B73A012000001EE05D8A402D0000114
:100A6000F22B020E0001EE19D8A402D00001F20709
:100A7000F2C0C9FF000E0001EF6F0001F2518CECD3
:100A80008EF01AC08BF01BC08CF01CC08DF03B0E9A
:100A90000001886F700E0001896F3F0E00018A6FA0
:100AA0004BEC82F088C099F089C09AF08AC09BF024
:100AB000000E0001636F7A0E0001646F440E0001A6
:100AC000656F510E306EC30E316E430E326E0001F3
:100AD000F251020DF3CF1AF0F4CF1BF0E9EC8DF0D8
:100AE0001AC02DF01BC02EF01CC02FF055EC87F063
:100AF0002DC060F02EC061F02FC062F000EC80F0DD
:100B000060C09CF061C09DF062C09EF099C030F062
:100B10009AC031F09BC032F09CC02DF09DC02EF0E9
:100B20009EC02FF055EC87F02DC09FF02EC0A0F096
:100B30002FC0A1F0520E1E6EB80E1F6E3F0E206E1B
:100B4000FF0E306E960E316E390E326E9FC02DF054
:100B5000A0C02EF0A1C02FF055EC87F02DC021F0E1
:100B60002EC022F02FC023F0CFEC87F01EC0F3F090
:100B70001FC0F4F020C0F5F01200000E736E320EAC
:100B8000726E010E936E000E946E010E926E818451
:100B90000F0EC16E9EEC8EF00001F2518CEC8EF0C7
:100BA0001AC08BF01BC08CF01CC08DF03B0E0001F6
:100BB000886F700E0001896F3F0E00018A6F4BEC49
:100BC00082F088C099F089C09AF08AC09BF0000E2C
:100BD0000001636F7A0E0001646F440E0001656FBF
:100BE000510E306EC30E316E430E326E0001F25163
:100BF000020DF3CF1AF0F4CF1BF0E9EC8DF01AC020
:100C00002DF01BC02EF01CC02FF055EC87F02DC02E
:100C100060F02EC061F02FC062F000EC80F060C088
:100C20009CF061C09DF062C09EF099C030F09AC007
:100C300031F09BC032F09CC02DF09DC02EF09EC0C4
:100C40002FF055EC87F02DC09FF02EC0A0F02FC0E4
:100C5000A1F0520E1E6EB80E1F6E3F0E206EFF0EDC
:100C6000306E960E316E390E326E9FC02DF0A0C0E0
:100C70002EF0A1C02FF055EC87F02DC021F02EC032
:100C800022F02FC023F0CFEC87F01EC0F3F01FC07E
:100C9000F4F020C0F5F01200000176510001771148
:100CA00000017811D8A40AD0000E0001766F000E62
:100CB0000001776F000E0001786F1200000178517B
:100CC0007F0B00017B6F7C6BD89000017B377C37FA
:100CD00000017B510001792700017C5100017A233A
:100CE000000177AF04D000017B6B7B2B02D00001A9
:100CF0007B6B00017B5100017927000E7A230001F4
:100D00007AAF0FD0000E0001E16F220EE06F000EEF
:100D10000001766F000E0001776F000E0001786F02
:100D2000120000017ABF1CD000017A05D8A018D0AB
:100D3000000E0001E16F220EE06F000178AF08D0D5
:100D4000FF0E0001766F7F0E0001776FFF0EE6D772
:100D5000FF0E0001766F7F0E0001776F7F0EDED7EA
:100D600000017A357A3100017C6F00017931000190
:100D70007B6F0001785100017B19800B7B1900010A
:100D8000786F79C07BF0010E00017B1700017B3387
:100D90007B330001775100017B197F0B7B19000128
:100DA000776F76C076F077C077F078C078F0120071
:100DB00077C012F078C013F079C014F07D0E156E74
:100DC000000E166E6BEC8BF000017EAF17D00001A9
:100DD00079AF0AD0000E0001776F800E0001786FA6
:100DE000BF0E0001796F1200000E0001776F000E38
:100DF0000001786F000E0001796F120000017E5132
:100E000005E1150E00017D5DD8A007D077C077F011
:100E100078C078F079C079F0120077C060F078C0BF
:100E200061F079C062F0DDEC83F060C06FF061C00A
:100E300070F062C071F063C072F020EC8BF06FC094
:100E40007AF070C07BF071C07CF077C060F078C041
:100E500061F079C062F07AC063F07BC064F07CC05E
:100E600065F01BEC89F00001D8B018D07AC060F0B2
:100E70007BC061F07CC062F0000E0001636F800EE9
:100E80000001646FBF0E0001656F00EC80F060C070
:100E900077F061C078F062C079F012007AC077F024
:100EA0007BC078F07CC079F012002FC033F0346A38
:100EB000356A2E34333601E334803350366E365083
:100EC000D8A407D0000E2D6E000E2E6E000E2F6ED1
:100ED000120032C033F0346A356A3134333601E3FC
:100EE000348033503B6E3B50D8A407D0000E2D6E9B
:100EF000000E2E6E000E2F6E12003B507B0F36261A
:100F00002FC03BF032503B1A800E3B162E8E318E96
:100F1000FF0E3016FF0E3116000E3216000E376E21
:100F2000000E386E000E396E070E3A6E2DA006D0F8
:100F3000305037263150382232503922D8902F3253
:100F40002E322D32D8903036313632363A2EEED718
:100F5000090E3A6E2DA006D0305037263150382277
:100F600032503922D8902F322E322D32D890393249
:100F7000383237323A2EEED737C012F038C013F07D
:100F800039C014F036C015F03BC016F0D8EC89F02B
:100F900012C02DF013C02EF014C02FF0120020C08C
:100FA00024F0256A266A1F34243601E32580245064
:100FB0002B6E2B50D8A407D0000E1E6E000E1F6E95
:100FC000000E206E120023C024F0256A266A223407
:100FD000243601E3258024502C6E2C50D8A407D051
:100FE000000E1E6E000E1F6E000E206E1200000E10
:100FF000286E000E296E000E2A6E2C50890F2B5E73
:1010000020C02CF023502C1A800E2C161F8EFF0EA1
:101010001E16FF0E1F16000E2016228EFF0E211622
:10102000FF0E2216000E2316180E276ED8902836B3
:1010300029362A3621501E5C22501F582350205832
:10104000D8A007D021501E5E22501F5A2350205A8C
:101050002880D8901E361F362036272EE7D728C086
:1010600012F029C013F02AC014F02BC015F02CC0C8
:1010700016F0D8EC89F012C01EF013C01FF014C097
:1010800020F0120071C012F072C013F0000E156E45
:10109000030E146E67EC8EF06FC03CF070C03DF034
:1010A00012503C2613503D223CC0F6FF3DC0F7FFD6
:1010B000000EF86E0900F5CF73F00900F5CF74F05B
:1010C0000A00F5CF75F041D073C030F074C031F034
:1010D00075C032F06CC02DF06DC02EF06EC02FF0D8
:1010E00055EC87F02DC060F02EC061F02FC062F08B
:1010F000000E156E030E146E00017107D8A0720762
:1011000071C012F072C013F067EC8EF06FC03CF04B
:1011100070C03DF012503C2613503D223CC0F6FFFB
:101120003DC0F7FF000EF86E0900F5CF63F009002F
:10113000F5CF64F00A00F5CF65F000EC80F060C0F8
:1011400073F061C074F062C075F00001715100016C
:101150007211D8A4B9D773C06CF074C06DF075C0AB
:101160006EF01200D388D380D382010E0001A96FE4
:10117000CCEC8DF0AEEC8EF050EC8EF0C4EC8EF03A
:10118000BDEC85F0F0C012F0F1C013F0F0C014F027
:10119000F1C015F067EC8EF012C0A2F013C0A3F0FE
:1011A000A2C012F0A3C013F0000E156E280E146E2C
:1011B00067EC8EF012C0F6F013C0F7F0010EBCEC35
:1011C0008EF0ABEC8CF0000EBCEC8EF0030E136EC8
:1011D000200E126E1FEC8EF0D3EC8AF0AA0E176E62
:1011E000000E186E38EC8CF0030E136E200E126E8B
:1011F0001FEC8EF0000E0AEC8DF0C40E176E000E80
:10120000186E38EC8CF0030E136E200E126E1FEC6D
:101210008EF0010E0AEC8DF0C40E176E000E186EE3
:1012200038EC8CF0030E136E200E126E1FEC8EF055
:101230002FEC8AF0A7D7000162AF1DD060C066F026
:1012400061C067F062C068F00001661F671F681F19
:10125000662B000E67236823000E0001662500013F
:10126000606F000E000167210001616F800E0001B8
:1012700068210001626F000165AF1DD063C066F098
:1012800064C067F065C068F00001661F671F681FD3
:10129000662B000E67236823000E000166250001FF
:1012A000636F000E000167210001646F800E000172
:1012B00068210001656F000E0001601B000E000137
:1012C000611B800E0001621B000E0001631B000EFB
:1012D0000001641B800E0001651B000163510001C9
:1012E000605D000164510001615900016551000118
:1012F0006259D8B002D0D8901200D880120071C0C4
:101300003CF072C03DF03C1E3D1E3C4A3D2A0001AF
:101310006F513C240001766F000170513D200001A7
:10132000776FE00E306E2B0E316E450E326E000E72
:10133000216E800E226E440E236E76C01AF077C0A6
:101340001BF0E9EC8DF01AC01EF01BC01FF01CC092
:1013500020F0CFEC87F01EC02DF01FC02EF020C073
:101360002FF055EC87F02DC073F02EC074F02FC015
:1013700075F0000E216E200E226E410E236E73C09A
:101380001EF074C01FF075C020F0CFEC87F01EC0B7
:1013900060F01FC061F020C062F0DDEC83F060C03F
:1013A00076F061C077F076C06FF077C070F0120011
:1013B0001550D8B405D0125013101410D8A40CD066
:1013C000000E126E000E136E000E146E1200152A1F
:1013D000D890143213321232000E1214176E000E0F
:1013E0001314186EFE0E1414196E175018101910DD
:1013F000D8B40CD0ECD7152A010E1226000E1322F9
:10140000000E1422D890143213321232000E12142D
:10141000176E000E1314186EFF0E1414196E175069
:1014200018101910D8B406D0E6D71506D890123681
:101430001336143613BE03D0020E1560F6D715A06E
:10144000139ED8901532155014121650D8A4148E2D
:1014500012C012F013C013F014C014F01200CAEC42
:101460008EF0390E306E840E316E3F0E326EF3C048
:101470002DF0F4C02EF0F5C02FF055EC87F02DC004
:1014800060F02EC061F02FC062F0D8C063F0D9C008
:1014900064F0DAC065F01BEC89F00001D8B005D02B
:1014A000010E0001EE6F1FEC85F0D8C060F0D9C0CE
:1014B00061F0DAC062F01D0E306E780E316E3F0EB4
:1014C000326EF3C02DF0F4C02EF0F5C02FF055ECC5
:1014D00087F02DC063F02EC064F02FC065F01BECC8
:1014E00089F00001D8B00AD00001F251D8B406D07A
:1014F000020E0001EE6F1FEC85F0120081B61200A3
:10150000C8EC8EF012009EAC12009E9C35D0C3CF6A
:101510004AF0C4CF4BF0C250C30B2009C26E000E7C
:101520000001DF6F010E26D0C3CF46F0C4CF47F0D5
:10153000C250C30B0409C26E000E0001DF6F020E21
:1015400019D0C3CF48F0C4CF49F0C294C296C29814
:10155000C29A000E0001DF6F030E0CD0C3CFE2F081
:10156000C4CFE3F0C250C30B2409C26E000E0001C9
:10157000DF6F000EDE6F15D0DEC001F0DFC002F0BD
:101580000250000AD8A40DD00150000AD8B4BFD729
:10159000010AD8B4C9D7030AD8B4D3D7010AD8B43A
:1015A000DDD7C2821200F0C017F0F1C018F0030EB0
:1015B0001A6EE80E196E35EC8DF01750300F0001E1
:1015C000BD6F030E156EE80E146EF0C012F0F1C080
:1015D00013F0ABEC8DF012C017F013C018F0000E32
:1015E0001A6E640E196E35EC8DF01750300F000135
:1015F000BE6F000E156E640E146EF0C012F0F1C0D6
:1016000013F0ABEC8DF012C017F013C018F0000E01
:101610001A6E0A0E196E35EC8DF01750300F00015E
:10162000BF6FF0C012F0F1C013F0000E156E0A0E7D
:10163000146EABEC8DF01250300F0001C06F120031
:10164000000E3D6E8E0E3C6E000172AF13D0000195
:10165000721F711F701F6F6D000E70237123722334
:10166000010E3D6E07D00001D89072337133703394
:101670006F333C2A000E00016F150001736F000EDE
:10168000000170150001746F000E0001711500015A
:10169000756FFF0E000172150001766F0001735126
:1016A000000174110001751100017611D8A4DBD777
:1016B0006FC012F070C013F071C014F03CC015F090
:1016C0003DC016F0D8EC89F012C06FF013C070F076
:1016D00014C071F01200125013101410D8A40FD0BF
:1016E00015C0D9FF16C0DAFF000EDE6E000EDD6EEB
:1016F000000E126E000E136E000E146E12001450C7
:101700007F0B176E186AD8901736183615C0D9FF98
:1017100016C0DAFF17C0DEFF18C0DDFF13AE03D01E
:10172000176A172A01D0176A175015C0D9FF16C0BB
:10173000DAFFDE12000EDD1215C0D9FF16C0DAFF87
:10174000820EDE26FF0EDD2214801482148414869D
:101750001488148A149C139E12C012F013C013F044
:1017600014C014F012008FAA120044C042F045C009
:1017700043F00F010851026E016A0F010751012465
:10178000446E000E0220456E42C001F043C002F0DC
:10179000011E021E014A022A44500126455002221F
:1017A000040E036ED89002320132032EFBD7400E96
:1017B000015C060E0258D8B017D042C001F043C0F9
:1017C00002F0011E021E014A022A44500126455021
:1017D0000222040E036ED89002320132032EFBD790
:1017E00001C0F0F002C0F1F08F9A1200000E1D6EE1
:1017F0001BAE06D01A6C1B1ED8B01B2A010E1D6E24
:1018000019AE06D0186C191ED8B0192A010E1D1A6F
:10181000000E1F6E000E1E6E1A501B10D8B41CD086
:10182000010E1C6E04D0D8901A361B361C2A1BAE33
:10183000FAD7D8901E361F361A50185C1B5019580C
:10184000D8A005D01A50185E1B50195A1E80D89087
:101850001B321A321C2EEDD71D50D8B404D01E6C8A
:101860001F1ED8B01F2A1EC018F01FC019F012008A
:1018700017C03EF018C03FF04CC040F04DC041F0E2
:10188000AD8A1CD09EA81AD03EC0F6FF3FC0F7FF1D
:10189000000EF86E0E0EF76403D00800F55005D068
:1018A000F6CFE9FFF7CFEAFFEF50AE6E3E4A3F2A90
:1018B000000E136E010E126E1FEC8EF03EC0F6FF8E
:1018C0003FC0F7FF000EF86E0E0EF76403D008005D
:1018D000F55005D0F6CFE9FFF7CFEAFFEF5000094A
:1018E000D8B41200CFD7000E176E13AE06D0126C0C
:1018F000131ED8B0132A010E176E15AE04D0146C47
:10190000151ED8B0152A14501510D8B418D0010ED1
:10191000166E04D0D89014361536162A15AEFAD79E
:101920001450125C15501358D8A004D01450125EF5
:101930001550135AD89015321432162EF1D717506D
:10194000D8B404D0126C131ED8B0132A12C012F0EF
:1019500013C013F012004D0E176EFF0E186E38EC08
:101960008CF0030E136E200E126E1FEC8EF02B0EF9
:10197000176EFF0E186E38EC8CF0030E136E200EEF
:10198000126E1FEC8EF0F90E176EFE0E186E38EC0C
:101990008CF00B0E136EB80E126E1FEC8EF0A80EAC
:1019A000176EFF0E186E38EC8CF00B0E136EB80E1F
:1019B000126E1FEC8EF012008E0E226E06D0D890A2
:1019C0001D321C321B321A32222A000E1A141E6ECD
:1019D000000E1B141F6E000E1C14206EFF0E1D1433
:1019E000216E1E501F1020102110D8A4E8D71AC055
:1019F00012F01BC013F01CC014F022C015F0000E32
:101A0000166ED8EC89F012C01AF013C01BF014C087
:101A10001CF012000001786F000178510001D8A479
:101A200012D04AC06FF04BC070F046C071F047C092
:101A300072F07FEC89F06FC0E6F070C0E7F0000E46
:101A400022EC83F0120048C06FF049C070F0E2C091
:101A500071F0E3C072F07FEC89F06FC0E4F070C009
:101A6000E5F0010E22EC83F01200000E1C6E000E59
:101A70001B6E19501A10D8B41CD0010E1D6E04D064
:101A8000D89019361A361D2A1AAEFAD7D8901B36B6
:101A90001C361950175C1A501858D8A005D0195088
:101AA000175E1A50185A1B80D8901A3219321D2E00
:101AB000EDD71BC017F01CC018F0120001EE00F0AB
:101AC000820EEE6AE806FDE100EED8F01B0EEE6A2B
:101AD000E806FDE100EE3EF0100EEE6AE806FDE1DC
:101AE0000A0EF66E1C0EF76E010EF86E00EEA4F0F4
:101AF00010EE34F00900F5CFEEFFE550E150FAE1C9
:101B00004E904E920001B2EF88F000016F5100013B
:101B1000701100017111D8B409D0000E00016F1BC3
:101B2000000E0001701B800E0001711B6CC060F084
:101B30006DC061F06EC062F06FC063F070C064F0A1
:101B400071C065F000EC80F060C06CF061C06DF0B9
:101B500062C06EF0120014501510D8B418D0010EE7
:101B6000166E04D0D89014361536162A15AEFAD74C
:101B70001450125C15501358D8A004D01450125EA3
:101B80001550135AD89015321432162EF1D712C0B0
:101B900012F013C013F0120094820F0150930F0142
:101BA00050918E8A8F9A070E0F01066FF28ECD82AA
:101BB000CD80CD8CCD9ECD9ACD98CD96000ECE6E9B
:101BC000000ECF6E000E0F01086F000E0F01076FA1
:101BD0001200000E1D6E1BAE06D01A6C1B1ED8B074
:101BE0001B2A010E1D6E1AC012F01BC013F0146ADE
:101BF0008E0E156E1DC016F0D8EC89F012C01AF0CA
:101C000013C01BF014C01CF0120020202020200163
:101C1000546865206672657175656E6379206973B5
:101C20003A2020202020200D0A0050697065207481
:101C3000656D70203D2020202020200D0A00000E20
:101C4000166E000E156E09D0030E146E980EE82E57
:101C5000FED7142EFCD7154A162A1250155C1650C2
:101C6000800A146E1350800A1458D8B01200ECD7B2
:101C70009EAA12009E9A000E4C24D96E010E4D2091
:101C8000DA6EAFCFDFFF4C4A4D2A4D5004E1650EAE
:101C90004C5CD8A01200000E4D6E000E4C6E12006F
:101CA00092809282809080928190938081929382A0
:101CB000FC0E0F01486F1C0E0F01496F000EC26E23
:101CC000BE0EC16EC2809E9C9D9CC28212001250AC
:101CD0001402F3CF16F0F4CF17F012501502F350A0
:101CE000172613501402F350172616C012F017C00F
:101CF00013F01200125013101410D8B406D0000EB6
:101D0000121A000E131A800E141A12C012F013C009
:101D100013F014C014F012001D6E1D50126E136AE1
:101D2000146A8E0E156E000E166ED8EC89F012C075
:101D30001AF013C01BF014C01CF01200550EA76E51
:101D4000AA0EA76E0E01BF91080E0E01FC6F0B0EBE
:101D50000E01C76F0A0E0E01C96F1200948E949C7B
:101D6000AD847E86000E7F6E220EB06EAD98AC8E76
:101D70009D989D8AAC881200126E1204D8A402D0DD
:101D8000AC881200AC981200C00EF26ED09E120009
:061D900081861200120022
:08FFF800AEF7FAFFFFFBFFFB6F
:00000001FF
