:04000000D9EF00F044
:100008004D82FACF05F0FBCF06F0E9CF07F0EACF33
:1000180008F0E1CF09F0E2CF0AF0D9CF0BF0DACF40
:100028000CF0F3CF0DF0F4CF0EF0F6CF0FF0F7CFC2
:1000380010F0F8CF11F0F5CF12F09EA82BD03CC0ED
:10004800F6FF3DC0F7FF000EF86E0E0EF76403D002
:100058000800F55005D0F6CFE1FFF7CFE2FFE750F3
:100068000009D8A403D09D984C8014D03CC0F6FF5A
:100078003DC0F7FF000EF86E0E0EF76403D00800BF
:10008800F55005D0F6CFE1FFF7CFE2FFE750AE6EAF
:100098003C4A3D2A9EAA1CD09E9A970E4A24D96EA5
:1000A800000E4B20DA6EAFCFDFFF4A4A4B2A970E7D
:1000B8004A24D96E000E4B20DA6E0A0EDE18D8B428
:1000C800AC98E90E4A5C030E4B58D8B05EEC0CF0C5
:1000D8009EAC4DD09E9C35D0C3CF44F0C4CF45F0E4
:1000E800C250C30B2009C26E000E0001966F010EAC
:1000F80026D0C3CF40F0C4CF41F0C250C30B04098F
:10010800C26E000E0001966F020E19D0C3CF42F0E6
:10011800C4CF43F0C294C296C298C29A000E00019E
:10012800966F030E0CD0C3CF3EF0C4CF3FF0C25041
:10013800C30B2409C26E000E0001966F000E956F66
:1001480015D095C003F096C004F00450000AD8A456
:100158000DD00350000AD8B4BFD7010AD8B4C9D704
:10016800030AD8B4D3D7010AD8B4DDD7C28212C0E3
:10017800F5FF11C0F8FF10C0F7FF0FC0F6FF0EC063
:10018800F4FF0DC0F3FF0CC0DAFF0BC0D9FF0AC0A3
:10019800E2FF09C0E1FF08C0EAFF07C0E9FF06C0A7
:0E01A800FBFF05C0FAFF4D9211008DEF0BF02A
:100F0000006D61632073657420647220780D0A009F
:100F100073797320676574207665720D0A00416DE0
:100F2000622E005069706500C0D401006D616320BD
:100F3000736574206170706B65792032453135417D
:100F400046433934413745463639414536314138D3
:100F500031343733374333383639390D0A006D6150
:100F60006320736574206170706575692037344340
:100F7000353432343533383537393734410D0A009A
:100F80006D616320736574206465766575692030D2
:100F90003030344133304230303141434637440DF4
:100FA0000A006D6163206A6F696E206F7461610D64
:030FB0000A000034
:100FB400256E2550D8A42AD0000E276E000E266E6A
:100FC40027BE06D027501DE1040E265CD8B019D0E8
:100FD400230E2624F66E0F0E2720F76EF86A000EF5
:100FE400F822810E2624D96E000E2720DA6E08001E
:100FF400F5CFDFFF264A272A27BEEAD7275001E18B
:10100400E3D748C02BF049C02CF029D0000E296E3C
:10101400000E286E29BE06D029501DE1040E285C5E
:10102400D8B019D01E0E2824F66E0F0E2920F76EA4
:10103400F86A000EF822810E2824D96E000E2920A9
:10104400DA6E0800F5CFDFFF284A292A29BEEAD73D
:10105400295001E1E3D746C02BF047C02CF02CAE59
:1010640008D02D0E00017C6F2B6C2C1ED8B02C2ABE
:1010740003D0200E00017C6F2BC019F02CC01AF095
:10108400000E1C6E640E1B6EE2EC0AF01950300F59
:1010940000017D6F000E166E640E156E2BC013F0EA
:1010A4002CC014F024EC0BF013C019F014C01AF087
:1010B400000E1C6E0A0E1B6EE2EC0AF01950300F83
:1010C40000017E6F2BC013F02CC014F0000E166EBE
:1010D4000A0E156E24EC0BF01350300F00017F6FD5
:1010E4000C0E2A6E100E2A6401D01200F40E216E2A
:1010F400FF0E226E2A50236E246A2150232622508A
:1011040024227C0E2324D96E000E2420DA6E2A5069
:10111400010D810EF324E16E000EF420E26EDFCFA8
:10112400E7FF2A2ADFD739C066F00001676B686BD6
:1011340038340001663701E367810001665100011C
:10114400706F00017051D8A409D0000E376E000EE4
:10115400386E000E396E000E3A6E1200170E000142
:10116400666F37C067F038C068F039C069F00001B5
:10117400662900016A6F05D00001D890693368338D
:10118400673300016A2FF8D70001675100016B6FC4
:10119400388EFF0E3716FF0E3816000E39163750EC
:1011A40000016C6F385000016D6F395000016E6F93
:1011B40000016F6B8E0E0001705F000170AF19D0DB
:1011C40000017051800A8F0FD8B009D0000E376E1D
:1011D400000E386E000E396E000E3A6E12000001D9
:1011E400D8906F336E336D336C330001703FF7D793
:1011F4001AD0170E0001706511D0000E376E000E64
:10120400386E000E396E000E3A6E12000001D8904E
:101214006C376D376E376F370001700700017051FE
:101224000001D8A4F3D700016B510001D8B409D050
:1012340000016F1F6E1F6D1F6C6D000E6D236E23FA
:101244006F236CC037F06DC038F06EC039F06FC0DA
:101254003AF0120030C034F0356A366A2F3434362E
:1012640001E3358034500001606F00016051D8A45F
:1012740007D0000E2E6E000E2F6E000E306E120080
:1012840033C034F0356A366A3234343601E335809B
:1012940034500001656F00016551D8A407D0000ED9
:1012A4002E6E000E2F6E000E306E1200000165517E
:1012B4007B0F0001602730C065F033500001651BCF
:1012C400800E000165172F8E328EFF0E3116FF0E31
:1012D4003216000E3316000E0001616F000E00017D
:1012E400626F000E0001636F070E0001646F2EA091
:1012F40009D031500001612732500001622333507C
:1013040000016323D89030322F322E32D8903136F8
:10131400323633360001642FEAD7090E0001646FB8
:101324002EA009D031500001612732500001622300
:10133400335000016323D89030322F322E32000113
:10134400D8906333623361330001642FE9D761C0FD
:1013540013F062C014F063C015F060C016F065C0ED
:1013640017F08BEC0AF013C02EF014C02FF015C048
:1013740030F0120021C025F0266A276A2034253671
:1013840001E3268025502C6E2C50D8A407D0000EE3
:101394001F6E000E206E000E216E120024C025F078
:1013A400266A276A2334253601E3268025502D6ECC
:1013B4002D50D8A407D0000E1F6E000E206E000E14
:1013C400216E1200000E296E000E2A6E000E2B6E86
:1013D4002D50890F2C5E21C02DF024502D1A800E23
:1013E4002D16208EFF0E1F16FF0E2016000E21163E
:1013F400238EFF0E2216FF0E2316000E2416180E3F
:10140400286ED89029362A362B3622501F5C23505A
:10141400205824502158D8A007D022501F5E2350B2
:10142400205A2450215A2980D8901F36203621363C
:10143400282EE7D729C013F02AC014F02BC015F0CA
:101444002CC016F02DC017F08BEC0AF013C01FF05F
:1014540014C020F015C021F0120073C075F074C0E0
:1014640076F00001751F761F754B762B00017151C4
:101474000001752500017A6F000172510001762187
:1014840000017B6FE00E316E2B0E326E450E336E13
:10149400000E226E800E236E440E246E7AC01BF062
:1014A4007BC01CF026EC0CF01BC01FF01CC020F00D
:1014B4001DC021F0BCEC09F01FC02EF020C02FF09D
:1014C40021C030F02CEC09F02EC077F02FC078F05A
:1014D40030C079F0000E226E200E236E410E246E71
:1014E40077C01FF078C020F079C021F0BCEC09F07F
:1014F4001FC037F020C038F021C039F095EC08F057
:1015040037C07AF038C07BF07AC071F07BC072F0DB
:1015140012001650D8B405D0135014101510D8A4C6
:101524000CD0000E136E000E146E000E156E120019
:10153400162AD890153214321332000E1314186E72
:10154400000E1414196EFE0E15141A6E185019108C
:101554001A10D8B40CD0ECD7162A010E1326000E9C
:101564001422000E1522D890153214321332000EB4
:101574001314186E000E1414196EFF0E15141A6E3F
:10158400185019101A10D8B406D0E6D71606D890F9
:1015940013361436153614BE03D0020E1660F6D771
:1015A40016A0149ED8901632165015121750D8A4AF
:1015B400158E13C013F014C014F015C015F01200EA
:1015C400000E1E6E1CAE06D01B6C1C1ED8B01C2A4E
:1015D400010E1E6E1AAE06D0196C1A1ED8B01A2A45
:1015E400010E1E1A000E206E000E1F6E1B501C10E2
:1015F400D8B41CD0010E1D6E04D0D8901B361C36F6
:101604001D2A1CAEFAD7D8901F3620361B50195C01
:101614001C501A58D8A005D01B50195E1C501A5AD9
:101624001F80D8901C321B321D2EEDD71E50D8B40B
:1016340004D01F6C201ED8B0202A1FC019F020C06F
:101644001AF01200000E186E14AE06D0136C141E9D
:10165400D8B0142A010E186E16AE04D0156C161EDE
:10166400D8B0162A15501610D8B418D0010E176E1B
:1016740004D0D89015361636172A16AEFAD7155058
:10168400135C16501458D8A004D01550135E16508D
:10169400145AD89016321532172EF1D71850D8B4E0
:1016A40004D0136C141ED8B0142A13C013F014C041
:1016B40014F01200D388D380D3824C8091EC0CF0C8
:1016C4007AEC0CF0BDEC0CF042EC0CF0010EB5EC35
:1016D4000CF005EC0CF0000EB5EC0CF0DDEC0BF0AE
:1016E40042EC0CF0DDEC0BF0000EB5EC0BF0810ECF
:1016F400136E000E146EACEC0CF0DDEC0BF0010E6E
:10170400B5EC0BF0810E136E000E146EACEC0CF005
:10171400DDEC0BF0DBD700EE97F013EEE8F0EE6AA9
:10172400E550E150FCE1E250FAE10001966B956B63
:1017340000EE3CF0100EEE6AE806FDE13E0EF66E99
:10174400190EF76E000EF86E00EE7CF010EE19F034
:101754000900F5CFEEFFE550E150FAE14D904D92CE
:1017640000015CEF0BF03B6E3B50D8A412D044C098
:1017740071F045C072F040C073F041C074F02FECBA
:101784000AF071C048F072C049F0000EDAEC07F0BC
:10179400120042C071F043C072F03EC073F03FC00B
:1017A40074F02FEC0AF071C046F072C047F0010EDD
:1017B400DAEC07F01200000E146E000E156E000E27
:1017C400166E000E176E06D0010E1426000E15229A
:1017D40016221722280EF66E0F0EF76E000EF86E04
:1017E4000900F550145C0900F55015580900F5502E
:1017F40016581750800A136E0900F550800A1358C2
:10180400D8B01200E1D7800E136E0F0E146EACEC3C
:101814000CF0DDEC0BF05E0E136E0F0E146EACECE0
:101824000CF0DDEC0BF02C0E136E0F0E146EACEC02
:101834000CF0DDEC0BF0A20E136E0F0E146EACEC7C
:101844000CF0DDEC0BF01200000E1E6E1CAE06D088
:101854001B6C1C1ED8B01C2A010E1E6E1BC013F07C
:101864001CC014F0156A8E0E166E1EC017F08BEC99
:101874000AF013C01BF014C01CF015C01DF01200B8
:10188400000E146E000E136E14BE06D0E80E135C28
:10189400030E1458D8B00BD0970E1324D96E000E33
:1018A4001420DA6E000EDF6E134A142AEDD7000EF0
:1018B4004B6E000E4A6E1200000E026E000E016E98
:1018C40002BE06D0E80E015C030E0258D8B00BD05D
:1018D400970E0124D96E000E0220DA6E000EDF6E20
:1018E400014A022AEDD7000E4B6E000E4A6E12001A
:1018F4009280928280908092819093808192938250
:10190400FC0E0F01486F1C0E0F01496F000EC26ED2
:10191400BE0EC16EC2809E9C9D8CC2821200948EAB
:10192400949CAD847E86000E7F6E220EB06EAD98C0
:10193400AC8E9D889D8AAC881200202020202050E7
:101944006970652074656D70203D20202020202062
:031954000D0A0079
:101958004CA0120013C03CF014C03DF09D88AD8A25
:101968001200136E1304D8A402D0AC881200AC98ED
:0A1978001200C00EF26ED09E1200A5
:020000040001F9
:08FFF800BEF7FAFFFFFBFFFB5F
:00000001FF
