:0400000043EF00F0DA
:100008004F82FACF03F0FBCF04F0E9CF05F0EACF37
:1000180006F0E1CF07F0E2CF08F0D9CF09F0DACF48
:100028000AF0F3CF0BF0F4CF0CF0F6CF0DF0F7CFCA
:100038000EF0F8CF0FF0F5CF10F0CAEC0AF0BFECD5
:100048000CF010C0F5FF0FC0F8FF0EC0F7FF0DC091
:10005800F6FF0CC0F4FF0BC0F3FF0AC0DAFF09C0BB
:10006800D9FF08C0E2FF07C0E1FF06C0EAFF05C0EC
:10007800E9FF04C0FBFF03C0FAFF4F92110038EFFD
:020088000CF07A
:100F0000006D61632073657420647220780D0A009F
:100F100073797320676574207665720D0A00416DE0
:100F2000622E0050697065006D61632073657420E6
:100F30006170706B657920324531354146433934F3
:100F400041374546363941453631413831343733FA
:100F5000374333383639390D0A006D6163207365C4
:100F600074206170706575692037344335343234CC
:100F70003533383537393734410D0A006D61632018
:100F8000736574206465766575692030303034414E
:100F900033304230303141434637440D0A006D61F1
:0F0FA00063206A6F696E206F7461610D0A000033
:100FB000236E2350D8A42AD0000E256E000E246E76
:100FC00025BE06D025501DE1040E245CD8B019D0F2
:100FD000230E2424F66E0F0E2520F76EF86A000EFD
:100FE000F822CF0E2424D96E000E2520DA6E0800D8
:100FF000F5CFDFFF244A252A25BEEAD7255001E197
:10100000E3D74AC029F04BC02AF029D0000E276E42
:10101000000E266E27BE06D027501DE1040E265C6A
:10102000D8B019D01E0E2624F66E0F0E2720F76EAC
:10103000F86A000EF822CF0E2624D96E000E272063
:10104000DA6E0800F5CFDFFF264A272A27BEEAD747
:10105000275001E1E3D7C8C029F0C9C02AF02AAE61
:1010600008D02D0E0001CA6F296C2A1ED8B02A2A7A
:1010700003D0200E0001CA6F29C017F02AC018F053
:10108000000E1A6E640E196E1AEC0BF01750300F2A
:101090000001CB6F000E146E640E136E29C011F0A8
:1010A0002AC012F0CFEC0BF011C017F012C018F0EC
:1010B000000E1A6E0A0E196E1AEC0BF01750300F54
:1010C0000001CC6F29C011F02AC012F0000E146E7E
:1010D0000A0E136ECFEC0BF01150300F0001CD6FE4
:1010E0000C0E286E100E286401D01200F40E1F6E34
:1010F000FF0E206E2850216E226A1F50212620509C
:101100002222CA0E2124D96E000E2220DA6E285027
:10111000010DCF0EF324E16E000EF420E26EDFCF5E
:10112000E7FF282ADFD73DC0E3F00001E46BE56B61
:101130003C340001E33701E3E4810001E3510001A5
:10114000ED6F0001ED51D8A409D0000E3B6E000EEA
:101150003C6E000E3D6E000E3E6E1200170E00013A
:10116000E36F3BC0E4F03CC0E5F03DC0E6F00001B9
:10117000E3290001E76F05D00001D890E633E5339D
:10118000E4330001E72FF8D70001E4510001E86FD4
:101190003C8EFF0E3B16FF0E3C16000E3D163B50DC
:1011A0000001E96F3C500001EA6F3D500001EB6F18
:1011B0000001EC6B8E0E0001ED5F0001EDAF19D068
:1011C0000001ED51800A8F0FD8B009D0000E3B6EA0
:1011D000000E3C6E000E3D6E000E3E6E12000001D1
:1011E000D890EC33EB33EA33E9330001ED3FF7D726
:1011F0001AD0170E0001ED6511D0000E3B6E000EE7
:101200003C6E000E3D6E000E3E6E12000001D89046
:10121000E937EA37EB37EC370001ED070001ED5114
:101220000001D8A4F3D70001E8510001D8B409D0D7
:101230000001EC1FEB1FEA1FE96D000EEA23EB2310
:10124000EC23E9C03BF0EAC03CF0EBC03DF0ECC061
:101250003EF012002EC032F0336A346A2D3432363A
:1012600001E333803250356E3550D8A407D0000EDC
:101270002C6E000E2D6E000E2E6E120031C032F05C
:10128000336A346A3034323601E3338032503A6E96
:101290003A50D8A407D0000E2C6E000E2D6E000E12
:1012A0002E6E12003A507B0F35262EC03AF0315088
:1012B0003A1A800E3A162D8E308EFF0E2F16FF0E24
:1012C0003016000E3116000E366E000E376E000E10
:1012D000386E070E396E2CA006D02F5036263050AF
:1012E000372231503822D8902E322D322C32D890DD
:1012F0002F3630363136392EEED7090E396E2CA006
:1013000006D02F5036263050372231503822D89010
:101310002E322D322C32D890383237323632392EA6
:10132000EED736C011F037C012F038C013F035C018
:1013300014F03AC015F073EC0AF011C02CF012C092
:101340002DF013C02EF012001FC023F0246A256A6E
:101350001E34233601E3248023502A6E2A50D8A459
:1013600007D0000E1D6E000E1E6E000E1F6E1200C6
:1013700022C023F0246A256A2134233601E3248025
:1013800023502B6E2B50D8A407D0000E1D6E000EDC
:101390001E6E000E1F6E1200000E276E000E286ECD
:1013A000000E296E2B50890F2A5E1FC02BF0225091
:1013B0002B1A800E2B161E8EFF0E1D16FF0E1E16EC
:1013C000000E1F16218EFF0E2016FF0E2116000E96
:1013D0002216180E266ED890273628362936205029
:1013E0001D5C21501E5822501F58D8A007D02050F5
:1013F0001D5E21501E5A22501F5A2780D8901D363C
:101400001E361F36262EE7D727C011F028C012F04F
:1014100029C013F02AC014F02BC015F073EC0AF0A9
:1014200011C01DF012C01EF013C01FF01200F0C05A
:10143000F2F0F1C0F3F00001F21FF31FF24BF32BB7
:101440000001EE510001F2250001F76F0001EF519C
:101450000001F3210001F86FE00E2F6E2B0E306EAD
:10146000450E316E000E206E800E216E440E226EEF
:10147000F7C019F0F8C01AF08AEC0CF019C01DF092
:101480001AC01EF01BC01FF0A4EC09F01DC02CF008
:101490001EC02DF01FC02EF02AEC09F02CC0F4F075
:1014A0002DC0F5F02EC0F6F0000E206E200E216E3D
:1014B000410E226EF4C01DF0F5C01EF0F6C01FF004
:1014C000A4EC09F01DC03BF01EC03CF01FC03DF075
:1014D00093EC08F03BC0F7F03CC0F8F0F7C0EEF03A
:1014E000F8C0EFF012001450D8B405D0115012100B
:1014F0001310D8A40CD0000E116E000E126E000E48
:10150000136E1200142AD890133212321132000EC8
:101510001114166E000E1214176EFE0E1314186EB0
:10152000165017101810D8B40CD0ECD7142A010E8E
:101530001126000E1222000E1322D89013321232FE
:101540001132000E1114166E000E1214176EFF0EDB
:101550001314186E165017101810D8B406D0E6D70A
:101560001406D89011361236133612BE03D0020E6E
:101570001460F6D714A0129ED8901432145013128F
:101580001550D8A4138E11C011F012C012F013C060
:1015900013F012009EAC12009E9C35D0C3CF48F0D1
:1015A000C4CF49F0C250C30B2009C26E000E000127
:1015B000C56F010E26D0C3CF44F0C4CF45F0C25052
:1015C000C30B0409C26E000E0001C56F020E19D0D4
:1015D000C3CF46F0C4CF47F0C294C296C298C29A15
:1015E000000E0001C56F030E0CD0C3CF42F0C4CF74
:1015F00043F0C250C30B2409C26E000E0001C56F38
:10160000000EC46F15D0C4C001F0C5C002F0025076
:10161000000AD8A40DD00150000AD8B4BFD7010ADF
:10162000D8B4C9D7030AD8B4D3D7010AD8B4DDD700
:10163000C2821200000E1C6E1AAE06D0196C1A1E61
:10164000D8B01A2A010E1C6E18AE06D0176C181EE0
:10165000D8B0182A010E1C1A000E1E6E000E1D6E48
:1016600019501A10D8B41CD0010E1B6E04D0D8909B
:1016700019361A361B2A1AAEFAD7D8901D361E36DE
:101680001950175C1A501858D8A005D01950175E79
:101690001A50185A1D80D8901A3219321B2EEDD7C5
:1016A0001C50D8B404D01D6C1E1ED8B01E2A1DC0FC
:1016B00017F01EC018F0120016C040F017C041F01D
:1016C0004CC0C6F04DC0C7F0AD8A1CD09EA81AD041
:1016D00040C0F6FF41C0F7FF000EF86E0E0EF76433
:1016E00003D00800F55005D0F6CFE9FFF7CFEAFFA9
:1016F000EF50AE6E404A412A000E126E010E116E7E
:10170000A6EC0CF040C0F6FF41C0F7FF000EF86EEB
:101710000E0EF76403D00800F55005D0F6CFE9FFB0
:10172000F7CFEAFFEF500009D8B41200CFD7D38823
:10173000D380D382010E4E6EEEEC0CF0D7EC0CF0A1
:1017400011EC0DF0010E09EC0DF007EC0CF0000EA1
:1017500009EC0DF0030E126E200E116EA6EC0CF0CB
:10176000000E62EC0CF0CF0E166E000E176E5CECE5
:101770000BF0030E126E200E116EA6EC0CF0010E93
:1017800062EC0CF0CF0E166E000E176E5CEC0BF0D8
:10179000030E126E200E116EA6EC0CF0D3D7000EC5
:1017A000166E12AE06D0116C121ED8B0122A010E9F
:1017B000166E14AE04D0136C141ED8B0142A135035
:1017C0001410D8B418D0010E156E04D0D89013366A
:1017D0001436152A14AEFAD71350115C145012584F
:1017E000D8A004D01350115E1450125AD89014325D
:1017F0001332152EF1D71650D8B404D0116C121E26
:10180000D8B0122A11C011F012C012F012007C0ED2
:10181000166E0F0E176E5CEC0BF0030E126E200EA0
:10182000116EA6EC0CF05A0E166E0F0E176E5CECD5
:101830000BF0030E126E200E116EA6EC0CF0280EAB
:10184000166E0F0E176E5CEC0BF00B0E126EB80ED0
:10185000116EA6EC0CF09E0E166E0F0E176E5CEC61
:101860000BF00B0E126EB80E116EA6EC0CF01200FF
:1018700000EE60F06A0EEE6AE806FDE100EE40F070
:101880000E0EEE6AE806FDE1F80EF66E190EF76E22
:10189000000EF86E00EECAF010EE19F00900F5CF58
:1018A000EEFFE550E150FAE12A0EF66E1A0EF76EE1
:1018B000000EF86E0900F5CF4EF04F904F920001E8
:1018C00097EF0BF03F6E3F50D8A412D048C0EEF017
:1018D00049C0EFF044C0F0F045C0F1F017EC0AF059
:1018E000EEC04AF0EFC04BF0000ED8EC07F012004B
:1018F00046C0EEF047C0EFF042C0F0F043C0F1F058
:1019000017EC0AF0EEC0C8F0EFC0C9F0010ED8EC39
:1019100007F01200000E1C6E1AAE06D0196C1A1ECB
:10192000D8B01A2A010E1C6E19C011F01AC012F09C
:10193000136A8E0E146E1CC015F073EC0AF011C001
:1019400019F012C01AF013C01BF01200000E156E31
:10195000000E146E09D0030E136E980EE82EFED7FB
:10196000132EFCD7144A152A1150145C1550800A06
:10197000136E1250800A1358D8B01200ECD79EAAEA
:1019800012009E9A600E4C24D96E000E4D20DA6E25
:10199000AFCFDFFF4C4A4D2A4D5004E1650E4C5C41
:1019A000D8A01200000E4D6E000E4C6E12009280F8
:1019B0009282809080928190938081929382FC0E9B
:1019C0000F01486F1C0E0F01496F000EC26EBE0E54
:1019D000C16EC2809E9C9D8CC2821200948E949C8B
:1019E000AD847E86000E7F6E220EB06EAD98AC8EFA
:1019F0009D989D8AAC88120020202020205069707C
:101A0000652074656D70203D2020202020200D0A67
:011A100000D5
:101A1200116E1104D8A402D0AC881200AC98120046
:091A2200C00EF26ED09E1200010C
:020000040001F9
:08FFF800AEF7FAFFFFFBFFFB6F
:00000001FF
