:0400000043EF00F0DA
:100008004E82FACF04F0FBCF05F0E9CF06F0EACF35
:1000180007F0E1CF08F0E2CF09F0D9CF0AF0DACF44
:100028000BF0F3CF0CF0F4CF0DF0F6CF0EF0F7CFC6
:100038000FF0F8CF10F0F5CF11F027EC0BF0D7EC5C
:100048000AF011C0F5FF10C0F8FF0FC0F7FF0EC08F
:10005800F6FF0DC0F4FF0CC0F3FF0BC0DAFF0AC0B7
:10006800D9FF09C0E2FF08C0E1FF07C0EAFF06C0E8
:10007800E9FF05C0FBFF04C0FAFF4E92110061EFD3
:020088000CF07A
:100F0000006D61632073657420647220780D0A009F
:100F100073797320676574207665720D0A00416DE0
:100F2000622E005069706500C0D401006D616320BD
:100F3000736574206170706B65792032453135417D
:100F400046433934413745463639414536314138D3
:100F500031343733374333383639390D0A006D6150
:100F60006320736574206170706575692037344340
:100F7000353432343533383537393734410D0A009A
:100F80006D616320736574206465766575692030D2
:100F90003030344133304230303141434637440DF4
:100FA0000A006D6163206A6F696E206F7461610D64
:030FB0000A000034
:100FB400246E2450D8A42AD0000E266E000E256E6E
:100FC40026BE06D026501DE1040E255CD8B019D0EB
:100FD400230E2524F66E0F0E2620F76EF86A000EF7
:100FE400F822E50E2524D96E000E2620DA6E0800BC
:100FF400F5CFDFFF254A262A26BEEAD7265001E18F
:10100400E3D749C02AF04AC02BF029D0000E286E3D
:10101400000E276E28BE06D028501DE1040E275C62
:10102400D8B019D01E0E2724F66E0F0E2820F76EA6
:10103400F86A000EF822E50E2724D96E000E282047
:10104400DA6E0800F5CFDFFF274A282A28BEEAD740
:10105400285001E1E3D747C02AF048C02BF02BAE5B
:1010640008D02D0E0001E06F2A6C2B1ED8B02B2A5D
:1010740003D0200E0001E06F2AC018F02BC019F035
:10108400000E1B6E640E1A6EB6EC0BF01850300F87
:101094000001E16F000E156E640E146E2AC012F08A
:1010A4002BC013F0F8EC0BF012C018F013C019F0B9
:1010B400000E1B6E0A0E1A6EB6EC0BF01850300FB1
:1010C4000001E26F2AC012F02BC013F0000E156E5F
:1010D4000A0E146EF8EC0BF01250300F0001E36F9F
:1010E4000C0E296E100E296401D01200F40E206E2D
:1010F400FF0E216E2950226E236A20502226215091
:101104002322E00E2224D96E000E2320DA6E295009
:10111400010DE50EF324E16E000EF420E26EDFCF44
:10112400E7FF292ADFD7C8C0CAF00001CB6BCC6B1C
:101134000001C7350001CA3701E3CB810001CA5160
:101144000001D46F0001D451D8A40AD0000E0001CC
:10115400C66F000EC76F000EC86F000EC96F120075
:10116400170E0001CA6FC6C0CBF0C7C0CCF0C8C010
:10117400CDF00001CA290001CE6F05D00001D8903E
:10118400CD33CC33CB330001CE2FF8D70001CB5174
:101194000001CF6F0001C78FFF0E0001C617FF0EBD
:1011A4000001C717000E0001C8170001C651000155
:1011B400D06F0001C7510001D16F0001C851000177
:1011C400D26F0001D36B8E0E0001D45F0001D4AF47
:1011D4001AD00001D451800A8F0FD8B00AD0000E63
:1011E4000001C66F000EC76F000EC86F000EC96FF6
:1011F40012000001D890D333D233D133D03300015D
:10120400D43FF7D71BD0170E0001D46512D0000EBF
:101214000001C66F000EC76F000EC86F000EC96FC5
:1012240012000001D890D037D137D237D33700011C
:10123400D4070001D4510001D8A4F3D70001CF5141
:101244000001D8B409D00001D31FD21FD11FD06D23
:10125400000ED123D223D323D0C0C6F0D1C0C7F00F
:10126400D2C0C8F0D3C0C9F012002FC033F0346A22
:10127400356A2E34333601E334803350366E3650BB
:10128400D8A407D0000E2D6E000E2E6E000E2F6E09
:10129400120032C033F0346A356A3134333601E334
:1012A400348033503B6E3B50D8A407D0000E2D6ED3
:1012B400000E2E6E000E2F6E12003B507B0F362652
:1012C4002FC03BF032503B1A800E3B162E8E318ECF
:1012D400FF0E3016FF0E3116000E3216000E376E5A
:1012E400000E386E000E396E070E3A6E2DA006D031
:1012F400305037263150382232503922D8902F328C
:101304002E322D32D8903036313632363A2EEED750
:10131400090E3A6E2DA006D03050372631503822AF
:1013240032503922D8902F322E322D32D890393281
:10133400383237323A2EEED737C012F038C013F0B5
:1013440039C014F036C015F03BC016F080EC0AF03A
:1013540012C02DF013C02EF014C02FF0120020C0C4
:1013640024F0256A266A1F34243601E3258024509C
:101374002B6E2B50D8A407D0000E1E6E000E1F6ECD
:10138400000E206E120023C024F0256A266A22343F
:10139400243601E3258024502C6E2C50D8A407D089
:1013A400000E1E6E000E1F6E000E206E1200000E48
:1013B400286E000E296E000E2A6E2C50890F2B5EAB
:1013C40020C02CF023502C1A800E2C161F8EFF0EDA
:1013D4001E16FF0E1F16000E2016228EFF0E21165B
:1013E400FF0E2216000E2316180E276ED8902836EC
:1013F40029362A3621501E5C22501F58235020586B
:10140400D8A007D021501E5E22501F5A2350205AC4
:101414002880D8901E361F362036272EE7D728C0BE
:1014240012F029C013F02AC014F02BC015F02CC000
:1014340016F080EC0AF012C01EF013C01FF014C0A6
:1014440020F01200D7C0D9F0D8C0DAF00001D91FBB
:10145400DA1FD94BDA2B0001D5510001D92500013F
:10146400DE6F0001D6510001DA210001DF6FE00ECA
:10147400306E2B0E316E450E326E000E216E800ED4
:10148400226E440E236EDEC01AF0DFC01BF0B3ECF4
:101494000CF01AC01EF01BC01FF01CC020F0B1ECF1
:1014A40009F01EC02DF01FC02EF020C02FF037EC25
:1014B40009F02DC0DBF02EC0DCF02FC0DDF0000EF3
:1014C400216E200E226E410E236EDBC01EF0DCC0A6
:1014D4001FF0DDC020F0B1EC09F01EC0C6F01FC043
:1014E400C7F020C0C8F095EC08F0C6C0DEF0C7C055
:1014F400DFF0DEC0D5F0DFC0D6F012001550D8B44E
:1015040005D0125013101410D8A40CD0000E126E73
:10151400000E136E000E146E1200152AD8901432A9
:1015240013321232000E1214176E000E1314186EBA
:10153400FE0E1414196E175018101910D8B40CD0CC
:10154400ECD7152A010E1226000E1322000E1422C7
:10155400D890143213321232000E1214176E000E89
:101564001314186EFF0E1414196E17501810191056
:10157400D8B406D0E6D71506D890123613361436EA
:1015840013BE03D0020E1560F6D715A0139ED89093
:101594001532155014121650D8A4148E12C012F01D
:1015A40013C013F014C014F012009EAC12009E9CE1
:1015B40035D0C3CF45F0C4CF46F0C250C30B200989
:1015C400C26E000E0001C56F010E26D0C3CF41F0DC
:1015D400C4CF42F0C250C30B0409C26E000E000116
:1015E400C56F020E19D0C3CF43F0C4CF44F0C294E8
:1015F400C296C298C29A000E0001C56F030E0CD0A9
:10160400C3CF3FF0C4CF40F0C250C30B2409C26E15
:10161400000E0001C56F000EC46F15D0C4C001F0E8
:10162400C5C002F00250000AD8A40DD00150000A2F
:10163400D8B4BFD7010AD8B4C9D7030AD8B4D3D70A
:10164400010AD8B4DDD7C28212009EAA1CD09E9A89
:10165400600E4B24D96E000E4C20DA6EAFCFDFFF44
:101664004B4A4C2A600E4B24D96E000E4C20DA6E85
:101674000A0EDE18D8B4AC984C5003E1650E4B5CEE
:10168400D8B0EBEC0CF09EA812003DC0F6FF3EC0B3
:10169400F7FF000EF86E0E0EF76403D00800F55045
:1016A40005D0F6CFE1FFF7CFE2FFE7500009D8A459
:1016B40004D09D98010E4D6E12003DC0F6FF3EC051
:1016C400F7FF000EF86E0E0EF76403D00800F55015
:1016D40005D0F6CFE1FFF7CFE2FFE750AE6E3D4A0B
:1016E4003E2A1200D388D380D382010E4D6E37EC8C
:1016F4000DF020EC0DF064EC0DF0CFEC0CF0010ECD
:101704005CEC0DF030EC0CF0000E5CEC0DF0030E14
:10171400136E200E126E07EC0DF0CFEC0CF0030EDE
:10172400136E200E126E07EC0DF0000E8BEC0CF015
:10173400E50E126E000E136E52EC0DF0030E136ED6
:10174400200E126E07EC0DF0010E8BEC0CF0E50E82
:10175400126E000E136E52EC0DF0030E136E200E7B
:10176400126E07EC0DF0CBD7000E1D6E1BAE06D02B
:101774001A6C1B1ED8B01B2A010E1D6E19AE06D0A2
:10178400186C191ED8B0192A010E1D1A000E1F6EEE
:10179400000E1E6E1A501B10D8B41CD0010E1C6E05
:1017A40004D0D8901A361B361C2A1BAEFAD7D89010
:1017B4001E361F361A50185C1B501958D8A005D075
:1017C4001A50185E1B50195A1E80D8901B321A32B8
:1017D4001C2EEDD71D50D8B404D01E6C1F1ED8B0DB
:1017E4001F2A1EC018F01FC019F01200000E176E39
:1017F40013AE06D0126C131ED8B0132A010E176E46
:1018040015AE04D0146C151ED8B0152A145015103A
:10181400D8B418D0010E166E04D0D89014361536EC
:10182400162A15AEFAD71450125C15501358D8A0C6
:1018340004D01450125E1550135AD8901532143235
:10184400162EF1D71750D8B404D0126C131ED8B08A
:10185400132A12C012F013C013F01200800E126E7D
:101864000F0E136E52EC0DF0030E136E200E126E5B
:1018740007EC0DF05E0E126E0F0E136E52EC0DF0AF
:10188400030E136E200E126E07EC0DF02C0E126E6A
:101894000F0E136E52EC0DF0030E136E200E126E2B
:1018A40007EC0DF0A20E126E0F0E136E52EC0DF03B
:1018B400030E136E200E126E07EC0DF0120000EEF4
:1018C40060F0660EEE6AE806FDE100EE3DF0100EF3
:1018D400EE6AE806FDE18A0EF66E1A0EF76E000E49
:1018E400F86E00EEE0F010EE19F00900F5CFEEFF0F
:1018F400E550E150FAE1D00EF66E1A0EF76E000EC6
:10190400F86E0900F5CF4DF04E904E92000174EF41
:101914000BF03C6E3C50D8A412D045C0D5F046C064
:10192400D6F041C0D7F042C0D8F024EC0AF0D5C0BC
:1019340049F0D6C04AF0000EDAEC07F0120043C0BA
:10194400D5F044C0D6F03FC0D7F040C0D8F024EC66
:101954000AF0D5C047F0D6C048F0010EDAEC07F023
:101964001200000E1D6E1BAE06D01A6C1B1ED8B0E2
:101974001B2A010E1D6E1AC012F01BC013F0146A4C
:101984008E0E156E1DC016F080EC0AF012C01AF00F
:1019940013C01BF014C01CF01200000E136E000ED6
:1019A400126E13BE06D013500FE1640E125CD8B051
:1019B4000BD0600E1224D96E000E1320DA6E000EC6
:1019C400DF6E124A132AEDD7000E4C6E000E4B6EDA
:1019D4001200000E026E000E016E02BE06D002500E
:1019E4000FE1640E015CD8B00BD0600E0124D96EF7
:1019F400000E0220DA6E000EDF6E014A022AEDD7D5
:101A0400000E4C6E000E4B6E1200000E166E000E91
:101A1400156E09D0030E146E980EE82EFED7142E00
:101A2400FCD7154A162A1250155C1650800A146EFB
:101A34001350800A1458D8B01200ECD792809282C6
:101A4400809080928190938081929382FC0E0F010A
:101A5400486F1C0E0F01496F000EC26EBE0EC16EA0
:101A6400C2809E9C9D8CC2821200948E949CAD84F4
:101A74007E86000E7F6E220EB06EAD98AC8E9D8871
:101A84009D8AAC8812002020202020506970652097
:0F1A940074656D70203D2020202020200D0A0059
:101AA4004D04D8A4120012C03DF013C03EF09D882E
:101AB400AD8A1200126E1204D8A402D0AC881200AF
:0D1AC400AC981200C00EF26ED09E12000110
:020000040001F9
:08FFF800AEF7FAFFFFFBFFFB6F
:00000001FF
