:04000000D9EF00F044
:100008004D82FACF05F0FBCF06F0E9CF07F0EACF33
:1000180008F0E1CF09F0E2CF0AF0D9CF0BF0DACF40
:100028000CF0F3CF0DF0F4CF0EF0F6CF0FF0F7CFC2
:1000380010F0F8CF11F0F5CF12F09EA82BD03CC0ED
:10004800F6FF3DC0F7FF000EF86E0E0EF76403D002
:100058000800F55005D0F6CFE1FFF7CFE2FFE750F3
:100068000009D8A403D09D984C8014D03CC0F6FF5A
:100078003DC0F7FF000EF86E0E0EF76403D00800BF
:10008800F55005D0F6CFE1FFF7CFE2FFE750AE6EAF
:100098003C4A3D2A9EAA1CD09E9A600E4A24D96EDC
:1000A800000E4B20DA6EAFCFDFFF4A4A4B2A600EB4
:1000B8004A24D96E000E4B20DA6E0A0EDE18D8B428
:1000C800AC984B5003E1650E4A5CD8B057EC0CF085
:1000D8009EAC4DD09E9C35D0C3CF44F0C4CF45F0E4
:1000E800C250C30B2009C26E000E0001C56F010E7D
:1000F80026D0C3CF40F0C4CF41F0C250C30B04098F
:10010800C26E000E0001C56F020E19D0C3CF42F0B7
:10011800C4CF43F0C294C296C298C29A000E00019E
:10012800C56F030E0CD0C3CF3EF0C4CF3FF0C25012
:10013800C30B2409C26E000E0001C56F000EC46F08
:1001480015D0C4C003F0C5C004F00450000AD8A4F8
:100158000DD00350000AD8B4BFD7010AD8B4C9D704
:10016800030AD8B4D3D7010AD8B4DDD7C28212C0E3
:10017800F5FF11C0F8FF10C0F7FF0FC0F6FF0EC063
:10018800F4FF0DC0F3FF0CC0DAFF0BC0D9FF0AC0A3
:10019800E2FF09C0E1FF08C0EAFF07C0E9FF06C0A7
:0E01A800FBFF05C0FAFF4D921100DDEF0BF0DA
:100F0000006D61632073657420647220780D0A009F
:100F100073797320676574207665720D0A00416DE0
:100F2000622E005069706500C0D401006D616320BD
:100F3000736574206170706B65792032453135417D
:100F400046433934413745463639414536314138D3
:100F500031343733374333383639390D0A006D6150
:100F60006320736574206170706575692037344340
:100F7000353432343533383537393734410D0A009A
:100F80006D616320736574206465766575692030D2
:100F90003030344133304230303141434637440DF4
:100FA0000A006D6163206A6F696E206F7461610D64
:030FB0000A000034
:100FB400256E2550D8A42AD0000E276E000E266E6A
:100FC40027BE06D027501DE1040E265CD8B019D0E8
:100FD400230E2624F66E0F0E2720F76EF86A000EF5
:100FE400F822E70E2624D96E000E2720DA6E0800B8
:100FF400F5CFDFFF264A272A27BEEAD7275001E18B
:10100400E3D748C02BF049C02CF029D0000E296E3C
:10101400000E286E29BE06D029501DE1040E285C5E
:10102400D8B019D01E0E2824F66E0F0E2920F76EA4
:10103400F86A000EF822E70E2824D96E000E292043
:10104400DA6E0800F5CFDFFF284A292A29BEEAD73D
:10105400295001E1E3D746C02BF047C02CF02CAE59
:1010640008D02D0E0001E26F2B6C2C1ED8B02C2A58
:1010740003D0200E0001E26F2BC019F02CC01AF02F
:10108400000E1C6E640E1B6EE2EC0AF01950300F59
:101094000001E36F000E166E640E156E2BC013F084
:1010A4002CC014F024EC0BF013C019F014C01AF087
:1010B400000E1C6E0A0E1B6EE2EC0AF01950300F83
:1010C4000001E46F2BC013F02CC014F0000E166E58
:1010D4000A0E156E24EC0BF01350300F0001E56F6F
:1010E4000C0E2A6E100E2A6401D01200F40E216E2A
:1010F400FF0E226E2A50236E246A2150232622508A
:101104002422E20E2324D96E000E2420DA6E2A5003
:10111400010DE70EF324E16E000EF420E26EDFCF42
:10112400E7FF2A2ADFD739C0CCF00001CD6BCE6BA4
:1011340038340001CC3701E3CD810001CC510001EA
:10114400D66F0001D651D8A409D0000E376E000E18
:10115400386E000E396E000E3A6E1200170E000142
:10116400CC6F37C0CDF038C0CEF039C0CFF000011D
:10117400CC290001D06F05D00001D890CF33CE33F5
:10118400CD330001D02FF8D70001CD510001D16F2C
:10119400388EFF0E3716FF0E3816000E39163750EC
:1011A4000001D26F38500001D36F39500001D46F61
:1011B4000001D56B8E0E0001D65F0001D6AF19D0A9
:1011C4000001D651800A8F0FD8B009D0000E376EB7
:1011D400000E386E000E396E000E3A6E12000001D9
:1011E400D890D533D433D333D2330001D63FF7D795
:1011F4001AD0170E0001D66511D0000E376E000EFE
:10120400386E000E396E000E3A6E12000001D8904E
:10121400D237D337D437D5370001D6070001D6519A
:101224000001D8A4F3D70001D1510001D8B409D0EA
:101234000001D51FD41FD31FD26D000ED323D42396
:10124400D523D2C037F0D3C038F0D4C039F0D5C0DC
:101254003AF0120030C034F0356A366A2F3434362E
:1012640001E3358034500001C66F0001C651D8A493
:1012740007D0000E2E6E000E2F6E000E306E120080
:1012840033C034F0356A366A3234343601E335809B
:1012940034500001CB6F0001CB51D8A407D0000E0D
:1012A4002E6E000E2F6E000E306E12000001CB5118
:1012B4007B0F0001C62730C0CBF033500001CB1B9D
:1012C400800E0001CB172F8E328EFF0E3116FF0ECB
:1012D4003216000E3316000E0001C76F000E000117
:1012E400C86F000E0001C96F070E0001CA6F2EA05F
:1012F40009D031500001C72732500001C8233350B0
:101304000001C923D89030322F322E32D890313692
:10131400323633360001CA2FEAD7090E0001CA6FEC
:101324002EA009D031500001C72732500001C82334
:1013340033500001C923D89030322F322E320001AD
:10134400D890C933C833C7330001CA2FE9D7C7C0FF
:1013540013F0C8C014F0C9C015F0C6C016F0CBC055
:1013640017F08BEC0AF013C02EF014C02FF015C048
:1013740030F0120021C025F0266A276A2034253671
:1013840001E3268025502C6E2C50D8A407D0000EE3
:101394001F6E000E206E000E216E120024C025F078
:1013A400266A276A2334253601E3268025502D6ECC
:1013B4002D50D8A407D0000E1F6E000E206E000E14
:1013C400216E1200000E296E000E2A6E000E2B6E86
:1013D4002D50890F2C5E21C02DF024502D1A800E23
:1013E4002D16208EFF0E1F16FF0E2016000E21163E
:1013F400238EFF0E2216FF0E2316000E2416180E3F
:10140400286ED89029362A362B3622501F5C23505A
:10141400205824502158D8A007D022501F5E2350B2
:10142400205A2450215A2980D8901F36203621363C
:10143400282EE7D729C013F02AC014F02BC015F0CA
:101444002CC016F02DC017F08BEC0AF013C01FF05F
:1014540014C020F015C021F01200D9C0DBF0DAC0AE
:10146400DCF00001DB1FDC1FDB4BDC2B0001D75160
:101474000001DB250001E06F0001D8510001DC21EF
:101484000001E16FE00E316E2B0E326E450E336EAD
:10149400000E226E800E236E440E246EE0C01BF0FC
:1014A400E1C01CF01FEC0CF01BC01FF01CC020F0AE
:1014B4001DC021F0BCEC09F01FC02EF020C02FF09D
:1014C40021C030F02CEC09F02EC0DDF02FC0DEF08E
:1014D40030C0DFF0000E226E200E236E410E246E0B
:1014E400DDC01FF0DEC020F0DFC021F0BCEC09F04D
:1014F4001FC037F020C038F021C039F095EC08F057
:1015040037C0E0F038C0E1F0E0C0D7F0E1C0D8F077
:1015140012001650D8B405D0135014101510D8A4C6
:101524000CD0000E136E000E146E000E156E120019
:10153400162AD890153214321332000E1314186E72
:10154400000E1414196EFE0E15141A6E185019108C
:101554001A10D8B40CD0ECD7162A010E1326000E9C
:101564001422000E1522D890153214321332000EB4
:101574001314186E000E1414196EFF0E15141A6E3F
:10158400185019101A10D8B406D0E6D71606D890F9
:1015940013361436153614BE03D0020E1660F6D771
:1015A40016A0149ED8901632165015121750D8A4AF
:1015B400158E13C013F014C014F015C015F01200EA
:1015C400000E1E6E1CAE06D01B6C1C1ED8B01C2A4E
:1015D400010E1E6E1AAE06D0196C1A1ED8B01A2A45
:1015E400010E1E1A000E206E000E1F6E1B501C10E2
:1015F400D8B41CD0010E1D6E04D0D8901B361C36F6
:101604001D2A1CAEFAD7D8901F3620361B50195C01
:101614001C501A58D8A005D01B50195E1C501A5AD9
:101624001F80D8901C321B321D2EEDD71E50D8B40B
:1016340004D01F6C201ED8B0202A1FC019F020C06F
:101644001AF01200000E186E14AE06D0136C141E9D
:10165400D8B0142A010E186E16AE04D0156C161EDE
:10166400D8B0162A15501610D8B418D0010E176E1B
:1016740004D0D89015361636172A16AEFAD7155058
:10168400135C16501458D8A004D01550135E16508D
:10169400145AD89016321532172EF1D71850D8B4E0
:1016A40004D0136C141ED8B0142A13C013F014C041
:1016B40014F01200D388D380D3824C808AEC0CF0CF
:1016C40073EC0CF0B6EC0CF03BEC0CF0010EAEEC51
:1016D4000CF0FEEC0BF0000EAEEC0CF0B5EC0BF0E5
:1016E4003BEC0CF0B5EC0BF0000E8DEC0BF0E70EC0
:1016F400136E000E146EA5EC0CF0B5EC0BF0010E9D
:101704008DEC0BF0E70E136E000E146EA5EC0CF0CE
:10171400B5EC0BF0DBD73B6E3B50D8A412D044C0E1
:10172400D7F045C0D8F040C0D9F041C0DAF02FEC72
:101734000AF0D7C048F0D8C049F0000EDAEC07F040
:10174400120042C0D7F043C0D8F03EC0D9F03FC029
:10175400DAF02FEC0AF0D7C046F0D8C047F0010EFB
:10176400DAEC07F01200000E146E000E156E000E77
:10177400166E000E176E06D0010E1426000E1522EA
:1017840016221722280EF66E0F0EF76E000EF86E54
:101794000900F550145C0900F55015580900F5507E
:1017A40016581750800A136E0900F550800A135812
:1017B400D8B01200E1D700EE60F0660EEE6AE806DB
:1017C400FDE100EE3CF0100EEE6AE806FDE1300E9D
:1017D400F66E190EF76E000EF86E00EEE2F010EEE3
:1017E40019F00900F5CFEEFFE550E150FAE14D9014
:1017F4004D9200015CEF0BF0800E136E0F0E146E11
:10180400A5EC0CF0B5EC0BF05E0E136E0F0E146E1F
:10181400A5EC0CF0B5EC0BF02C0E136E0F0E146E41
:10182400A5EC0CF0B5EC0BF0A20E136E0F0E146EBB
:10183400A5EC0CF0B5EC0BF01200000E1E6E1CAE05
:1018440006D01B6C1C1ED8B01C2A010E1E6E1BC0B9
:1018540013F01CC014F0156A8E0E166E1EC017F01D
:101864008BEC0AF013C01BF014C01CF015C01DF063
:101874001200000E146E000E136E14BE06D0145027
:101884000FE1640E135CD8B00BD0600E1324D96E34
:10189400000E1420DA6E000EDF6E134A142AEDD700
:1018A400000E4B6E000E4A6E1200000E026E000E09
:1018B400016E02BE06D002500FE1640E015CD8B086
:1018C4000BD0600E0124D96E000E0220DA6E000ED9
:1018D400DF6E014A022AEDD7000E4B6E000E4A6EEF
:1018E4001200928092828090809281909380819263
:1018F4009382FC0E0F01486F1C0E0F01496F000EFE
:10190400C26EBE0EC16EC2809E9C9D8CC2821200AD
:10191400948E949CAD847E86000E7F6E220EB06EF3
:10192400AD98AC8E9D889D8AAC8812002020202022
:1019340020506970652074656D70203D2020202042
:0519440020200D0A0047
:10194A004CA0120013C03CF014C03DF09D88AD8A33
:10195A001200136E1304D8A402D0AC881200AC98FB
:0A196A001200C00EF26ED09E1200B3
:020000040001F9
:08FFF800AEF7FAFFFFFBFFFB6F
:00000001FF
