:0400000087EF00F096
:100008004082FACF1CF0FBCF1DF0E9CF1EF0EACFFB
:100018001FF0E1CF20F0E2CF21F0D9CF22F0DACFE4
:1000280023F0F3CF24F0F4CF25F0F6CF26F0F7CF66
:1000380027F0F8CF28F0F5CF29F09EA819D031C0C5
:10004800F6FF32C0F7FF000EF86E0800F550000901
:10005800D8A403D09D983F800BD031C0F6FF32C0A2
:10006800F7FF000EF86E0800F5CFAEFF314A322ACE
:100078009EAC2BD09E9C19D0C3CF39F0C4CF3AF098
:10008800C250C30B2809C26E000E306E010E0BD091
:10009800C3CF35F0C4CF36F0C250C30B2409C26EAB
:1000A800000E306E000E2F6E0FD02FC01AF030C029
:1000B8001BF01B50000AD8A407D01A50000AD8B465
:1000C800DBD7010AD8B4E4D7C28229C0F5FF28C01B
:1000D800F8FF27C0F7FF26C0F6FF25C0F4FF24C0AD
:1000E800F3FF23C0DAFF22C0D9FF21C0E2FF20C0FE
:1000F800E1FF1FC0EAFF1EC0E9FF1DC0FBFF1CC0D7
:0A010800FAFF40921100B7EF07F074
:100F000000416D622E005069706500C0D40100730D
:100F1000797320676574207665720D0A0000000EF3
:100F20002B6E000E2C6E000E2D6E000E2E6E06D057
:100F3000010E2B26000E2C222D222E220B0EF66ED9
:100F40000F0EF76E000EF86E0900F5502B5C0900CD
:100F5000F5502C580900F5502D582E50800A2A6E55
:100F60000900F550800A2A58D8B01200E1D700EEE7
:100F70002FF0100EEE6AE806FDE1F20EF66E0F0E8F
:100F8000F76E000EF86E00EE01F010EE19F0090099
:100F9000F5CFEEFFE550E150FAE1409040920001BC
:100FA000E8EF07F092809282809080928190938007
:100FB000819293820F0148690C0E0F01496F000E58
:100FC000C26EBE0EC16EC2809E9C9D8CC2821200FB
:100FD000D3883F8006EC08F0D2EC07F01AEC08F05A
:100FE0000F0E2A6E0F0E2B6E11EC08F08FEC07F02F
:100FF000F7D7506970652074656D70203D20202002
:0B1000002020200D0A002020202E20C0
:10100C00948E949CAD84000E7F6E190EB06EAD98CC
:10101C00AC8E9D8812003FA012002AC031F02BC06C
:10102C0032F09D88AD8A1200C00EF26ED09E120076
:020000040001F9
:08FFF800ACF6FAFFFFFBFFFB72
:00000001FF
