:0400000047EF00F0D6
:100008005F82FACF27F0FBCF28F0E9CF29F0EACFBB
:100018002AF0E1CF2BF0E2CF2CF0D9CF2DF0DACFB8
:100028002EF0F3CF2FF0F4CF30F0F6CF31F0F7CF3A
:1000380032F0F8CF33F0F5CF34F003EC99F0B1ECAF
:100048009BF0C2EC88F075EC9CF034C0F5FF33C02F
:10005800F8FF32C0F7FF31C0F6FF30C0F4FF2FC001
:10006800F3FF2EC0DAFF2DC0D9FF2CC0E2FF2BC052
:10007800E1FF2AC0EAFF29C0E9FF28C0FBFF27C02B
:0A008800FAFF5F92110018EF98F0E4
:10FDDE0000010000000A00000064000000E80300BB
:10FDEE000010270000A086010040420F0080969868
:10FDFE000000E1F50500CA9A3B00803FCDCC3DD70F
:10FE0E00233C12833AB7D138C62737388635C0D649
:10FE1E0033CC2B32708930E7DB2EE53C1E42A20D2F
:10FE2E0000803F00204100C842007A44401C4650EA
:10FE3E00C34724744997184BBCBE4C6B6E4E0315CA
:10FE4E005079AD60F3497101000000100000000010
:10FE5E000100000010000000000100000010000072
:10FE6E00000001000000106D616320736574206452
:10FE7E007220780D0A007379732067657420766599
:10FE8E00720D0A00416D622E005069706500FDC250
:10FE9E00EF6D616320736574206170706B657920FE
:10FEAE00324531354146433934413745463639417D
:10FEBE0045363141383134373337433338363939B3
:10FECE000D0A006D61632073657420617070657535
:10FEDE006920373443353432343533383537393792
:10FEEE0034410D0A006D616320736574206465767C
:10FEFE006575692030303034413330423030314115
:10FF0E00434637440D0A0000803F72313FFE753E76
:10FF1E0058633D951D3CC5AE3A792139948037938F
:10FF2E00A73556153400000000803FF0FFBEE2A951
:10FF3E003E8376BEAE2B3E3CC3BDD2133D78D3BBC3
:10FF4E006D6163206A6F696E206F7461610D0A00C6
:10FF5E0054686520696E647563746976652066728F
:10FF6E00657175656E63792069733A2025662C205C
:10FF7E0025662C20256C75200D0A005468652063BB
:10FF8E006170616369746976652066726571756505
:10FF9E006E63792069733A2025660D0A00546865F0
:10FFAE002064696769706F7420737465702069735B
:10FFBE003A202575200D0A006D6163207478206348
:10FFCE006E6620312025782578257825780D0A0053
:10FFDE0030313233343536373839616263646566B1
:10FFEE00006D616320747820636E66203120005F9F
:02FFFE00000001
:020000040001F9
:10000000A30E0001B96F000E0001BA6FC7EF84F0B4
:10001000250E0001CC19D8B40BD09FC0D9FFA0C0C9
:10002000DAFFCCC0DFFF00019F4BA02BC7EF84F0AD
:10003000000E0001BC6F000EBB6F0DD00001BB892C
:100040000AD00001BC8527D00001BB8F24D0C00E90
:100050000001BB1320D0A1C0F6FFA2C0F7FF000132
:10006000A14BA22B000EF86E0800F5CFCCF00001DA
:10007000CC51000AD8B4D8EF84F0660AD8B4E1D7DE
:100080000A0AD8B4DBD7190AD8B4E1D70D0AD8B414
:10009000DBD7C7EF84F0070E0001BC15D8B432D30C
:1000A000000E0001BE6F060EBD6FB9C0D9FFBAC009
:1000B000DAFFDECFC9F0DECFCAF0DDCFCBF0030E22
:1000C0000001B927000EBA230001CBAF11D0C9C07F
:1000D00060F0CAC061F0CBC062F0EAEC9BF060C097
:1000E000C9F061C0CAF062C0CBF0030E0001BB13BF
:1000F000000E0001C46F000EC36F0001C951000162
:10010000CA110001CB11D8B49BD0820E0001AF6F91
:10011000FF0E0001B06FC9C0B1F0CAC0B2F0CBC0D1
:10012000B3F0CCC0B4F0100E06D00001D890B433B8
:10013000B333B233B133E82EF8D70001B151000127
:10014000AF250001C36F000E0001B0210001C46F94
:100150000001C307D8A0C407C3C06EF0C4C06FF0CD
:10016000000E0001716F030E706FCFEC9BF06EC03C
:10017000C3F06FC0C4F0C3C066F0C4C067F0000E27
:100180000001696F0A0E686F5CEC96F066C0C3F000
:1001900067C0C4F00001C4AF04D00001C307D8A0F9
:1001A000C4070001C3510008DFEC84F083C0C5F030
:1001B00084C0C6F085C0C7F0C5C074F0C6C075F075
:1001C000C7C076F0C9C077F0CAC078F0CBC079F06C
:1001D000BFEC8EF074C0C5F075C0C6F076C0C7F035
:1001E000C5C083F0C6C084F0C7C085F0000E000112
:1001F000866F800E0001876F3F0E0001886FF8EC5C
:1002000095F00001D8B005D00001C307D8A0C407FD
:1002100017D0C5C083F0C6C084F0C7C085F0000EFB
:100220000001866F200E0001876F410E0001886F6C
:10023000F8EC95F00001D8A003D00001C34BC42B0B
:100240000001BEBF08D00001BE511DE10D0E00012E
:10025000BD5DD8B018D0C9C08DF0CAC08EF0CBC07B
:100260008FF00001BD515AEC87F083C090F084C03C
:1002700091F085C092F001EC8AF08DC0C9F08EC07B
:10028000CAF08FC0CBF00001C4BF08D00001C45138
:100290002AE10A0E0001C35DD8B025D00001C95182
:1002A0000001CA110001CB11D8B463D0C9C08AF0D3
:1002B000CAC08BF0CBC08CF063EC91F000018A5186
:1002C00000018B1100018C1100018D11D8A451D0B7
:1002D0000001C4BF4ED00001C45105E1020E00016F
:1002E000C35DD8A046D0C5C083F0C6C084F0C7C0E7
:1002F00085F0700E0001866F890E0001876F400E39
:100300000001886FF8EC95F00001D8B003D000012F
:10031000F70E02D00001F80EC327FF0EC423000120
:10032000C351DFEC84F083C0C5F084C0C6F085C043
:10033000C7F0C9C060F0CAC061F0CBC062F0C5C0F0
:1003400063F0C6C064F0C7C065F02CEC8DF060C0EF
:10035000BFF061C0C0F062C0C1F063C0C2F0000E67
:100360000001C96F000E0001CA6F000E0001CB6FC3
:1003700033D0C9C08AF0CAC08BF0CBC08CF063EC1C
:1003800091F08AC0BFF08BC0C0F08CC0C1F08DC0AE
:10039000C2F0C9C099F0CAC09AF0CBC09BF0BFC0F0
:1003A00068F0C0C069F0C1C06AF0C2C06BF090ECE8
:1003B00099F068C09CF069C09DF06AC09EF047EC5F
:1003C0009BF099C0C9F09AC0CAF09BC0CBF0000E58
:1003D0000001C46F000EC36F010E0001CC6F0A0E46
:1003E0000001CC19D8B421D00001CC51040DDF0E8E
:1003F000F324F66EFD0EF420F76EF86A000EF82274
:100400000900F5500001BF5D0900F5500001C05919
:100410000900F5500001C1590900F5500001C25909
:10042000D8A003D00001CC2BDAD7030E0001BB15F6
:100430000001AF6F000E0001BC150001B06F00019C
:10044000AF510001B011D8B458D09FC0D9FFA0C09F
:10045000DAFF2D0E50D000019F4BA02B4ED0BFC015
:1004600060F0C0C061F0C1C062F0C2C063F00001C2
:10047000CC51040DDF0EF324F66EFD0EF420F76E62
:10048000F86A000EF8220900F5CF64F00900F5CFF4
:1004900065F00900F5CF66F00A00F5CF67F0BBEC18
:1004A00096F060C0C5F061C0C6F062C0C7F063C01E
:1004B000C8F0C5C06DF0C6C06EF0C7C06FF0C8C050
:1004C00070F00A0E0001716F000E726F000E736FF4
:1004D000000E746FB6EC98F06DC0C5F06EC0C6F03B
:1004E0006FC0C7F070C0C8F00001C551300F9FC089
:1004F000D9FFA0C0DAFFDF6EAED70001CC07000144
:10050000CC29D8B40ED0ABD79FC0D9FFA0C0DAFF9A
:10051000300EDF6E00019F4BA02B0001C307D8A057
:10052000C4070001C4BF07D00001C451EDE10001C0
:10053000C305D8B0E9D70001BEBF0CD00001BE5141
:1005400005E1090E0001BD5DD8A004D0080E000130
:10055000CC6F02D0BDC0CCF00001CC510001BD5F1A
:10056000000E0001CCBFFF0E0001BE5B0001CC51AC
:100570000001D8B409D09FC0D9FFA0C0DAFF2E0E69
:10058000DF6E00019F4BA02B0001CC51DFEC84F00B
:1005900083C0B5F084C0B6F085C0B7F0C9C077F0AD
:1005A000CAC078F0CBC079F0B5C074F0B6C075F0B1
:1005B000B7C076F0BFEC8EF074C08AF075C08BF0D7
:1005C00076C08CF063EC91F08AC0BFF08BC0C0F0B5
:1005D0008CC0C1F08DC0C2F07AD0BFC060F0C0C086
:1005E00061F0C1C062F0C2C063F00001CC51040DE3
:1005F000DF0EF324F66EFD0EF420F76EF86A000E9F
:10060000F8220900F5CF64F00900F5CF65F0090084
:10061000F5CF66F00A00F5CF67F0BBEC96F060C04E
:10062000C5F061C0C6F062C0C7F063C0C8F0C5C005
:100630006DF0C6C06EF0C7C06FF0C8C070F00A0E93
:100640000001716F000E726F000E736F000E746FF9
:10065000B6EC98F06DC0C5F06EC0C6F06FC0C7F0C4
:1006600070C0C8F00001C551300F9FC0D9FFA0C0B5
:10067000DAFFDF6E00019F4BA02BBFC06DF0C0C042
:100680006EF0C1C06FF0C2C070F00001CC51040D1B
:10069000DF0EF324F66EFD0EF420F76EF86A000EFE
:1006A000F8220900F5CF71F00900F5CF72F00900CA
:1006B000F5CF73F00A00F5CF74F0B6EC98F06DC08A
:1006C000BFF06EC0C0F06FC0C1F070C0C2F00001DA
:1006D000CC070001CC29D8B40ED07FD79FC0D9FF5A
:1006E000A0C0DAFF300EDF6E00019F4BA02B00018F
:1006F000BD07D8A0BE070001BD510001BE11D8B48E
:1007000046D1ECD70001BBA90ED0B9C0D9FFBAC001
:10071000DAFFDECFBFF0DECFC0F0DECFC1F0DECF3C
:10072000C2F0040E10D0B9C0D9FFBAC0DAFFDECFD4
:10073000AFF0DDCFB0F0AFC0BFF0B0C0C0F000018F
:10074000C16BC26B020E0001B927000EBA2352D052
:10075000010E0001CC6F0A0E0001CC19D8B453D0A1
:100760000001CC51040DDF0EF324F66EFD0EF420D3
:10077000F76EF86A000EF8220900F5500001BF5D1F
:100780000900F5500001C0590900F5500001C15998
:100790000900F5500001C259D8A035D00001CC2B7A
:1007A000DAD7010E0001CC6F080E0001CC19D8B4C5
:1007B0002AD00001CC51040D550EF324F66EFE0E26
:1007C000F420F76EF86A000EF8220900F5500001D7
:1007D000BF5D0900F5500001C0590900F550000146
:1007E000C1590900F5500001C259D8A00CD0000130
:1007F000CC2BDAD70001BB51C00B800AD8B4D1D7BB
:10080000400AD8B4A5D7030E0001BB150001AF6F95
:10081000000E0001BC150001B06F0001AF510001D6
:10082000B011D8B409D09FC0D9FFA0C0DAFF2D0EF7
:10083000DF6E00019F4BA02B0001CC510001BD6F6A
:10084000BE6BBDBFBE0798D0BDC0AFF0BEC0B0F09C
:100850000001D890AF37B0370001D890AF37B0372C
:10086000DF0E0001AF25F66EFD0EB021F76EF86ABF
:10087000000EF8220900F5CF64F00900F5CF65F00D
:100880000900F5CF66F00A00F5CF67F0BFC060F051
:10089000C0C061F0C1C062F0C2C063F0BBEC96F0B2
:1008A00060C06DF061C06EF062C06FF063C070F048
:1008B0000A0E0001716F000E726F000E736F000E52
:1008C000746FB6EC98F000016D51300F0001CC6FE1
:1008D0004AD0BFC060F0C0C061F0C1C062F0C2C009
:1008E00063F0BDC0AFF0BEC0B0F00001D890AF372C
:1008F000B0370001D890AF37B037550E0001AF25A3
:10090000F66EFE0EB021F76EF86A000EF8220900AE
:10091000F5CF64F00900F5CF65F00900F5CF66F07A
:100920000A00F5CF67F0BBEC96F0000160510F0BA9
:100930000001B86F0001B851010DDE0EF324F66E10
:10094000FF0EF420F76EF86A000EF8220800F5CFCB
:10095000CCF009D00001BB51C00B800AD8B4B9D784
:10096000400AD8B471D79FC0D9FFA0C0DAFFCCC06D
:10097000DFFF00019F4BA02B0001BD07D8A0BE07E1
:100980000001BD29E7E10001BE29D8A4E3D7A1C039
:10099000F6FFA2C0F7FF0001A14BA22B000EF86EDC
:1009A0000800F5CFCCF00001CC51D8A408EF80F0BE
:1009B0009FC0D9FFA0C0DAFF000EDF6E1200000159
:1009C000896F000189AF3CD10001896D0001895117
:1009D000800A120FD8A0B5D0000E0001716F030E6F
:1009E000706F000E0001696F0A0E686F000E000143
:1009F000636F640E626F000189510001606F616B6B
:100A000060BF6107C7EC97F060C066F061C067F037
:100A10005CEC96F0090E0001662500016E6F000E79
:100A20000001672100016F6FCFEC9BF0070E000102
:100A30006E25F66EFE0E00016F21F76EF86A000E4D
:100A4000F8220900F5CF77F00900F5CF78F00A0019
:100A5000F5CF79F0000E0001696F640E686F000138
:100A600089510001666F676B66BF67075CEC96F0A3
:100A7000120E0001662500016E6F000E0001672155
:100A800000016F6F000E0001716F030E706FCFECED
:100A90009BF0070E00016E25F66EFE0E00016F2121
:100AA000F76EF86A000EF8220900F5CF74F009001D
:100AB000F5CF75F00A00F5CF76F0BFEC8EF074C07C
:100AC00086F075C087F076C088F086C074F087C065
:100AD00075F088C076F0000E0001716F030E706F24
:100AE000000E0001636F0A0E626F00018951000160
:100AF000606F616B60BF6107C7EC97F060C06EF01C
:100B000061C06FF0CFEC9BF0070E00016E25F66E12
:100B1000FE0E00016F21F76EF86A000EF822090040
:100B2000F5CF77F00900F5CF78F00A00F5CF79F02E
:100B3000BFEC8EF074C083F075C084F076C085F091
:100B4000120000018951800A750FD8A063D0000EF1
:100B50000001696F0A0E686F000189510001666F1C
:100B6000676B66BF67075CEC96F0090E00016625AF
:100B700000016E6F000E0001672100016F6F000E13
:100B80000001716F030E706FCFEC9BF0070E000138
:100B90006E25F66EFE0E00016F21F76EF86A000EEC
:100BA000F8220900F5CF74F00900F5CF75F00A00BE
:100BB000F5CF76F0000E0001716F030E706F000E1E
:100BC0000001636F0A0E626F000189510001606FBE
:100BD000616B60BF6107C7EC97F060C06EF061C0E9
:100BE0006FF0CFEC9BF0070E00016E25F66EFE0E47
:100BF00000016F21F76EF86A000EF8220900F5CFA8
:100C000077F00900F5CF78F00A00F5CF79F0BFEC66
:100C10008EF090D700018951030D070EF324F66E74
:100C2000FE0EF420F76EF86A000EF8220900F5CFE8
:100C300083F00900F5CF84F00A00F5CF85F01200AB
:100C400000018951800A120FD8A0B5D0000E000112
:100C5000716F030E706F000E0001696F0A0E686FEE
:100C6000000E0001636F640E626F00018951000184
:100C7000606F616B60BF6107C7EC97F060C066F0A2
:100C800061C067F05CEC96F0090E0001662500017A
:100C90006E6F000E0001672100016F6FCFEC9BF0BB
:100CA0002E0E00016E25F66EFE0E00016F21F76E0E
:100CB000F86A000EF8220900F5CF77F00900F5CFA9
:100CC00078F00A00F5CF79F0000E0001696F640E2C
:100CD000686F000189510001666F676B66BF670727
:100CE0005CEC96F0120E0001662500016E6F000E9E
:100CF0000001672100016F6F000E0001716F030E8C
:100D0000706FCFEC9BF02E0E00016E25F66EFE0E7E
:100D100000016F21F76EF86A000EF8220900F5CF86
:100D200074F00900F5CF75F00A00F5CF76F0BFEC4E
:100D30008EF074C086F075C087F076C088F086C0EB
:100D400074F087C075F088C076F0000E0001716FF6
:100D5000030E706F000E0001636F0A0E626F0001D8
:100D600089510001606F616B60BF6107C7EC97F04C
:100D700060C06EF061C06FF0CFEC9BF02E0E0001F2
:100D80006E25F66EFE0E00016F21F76EF86A000EFA
:100D9000F8220900F5CF77F00900F5CF78F00A00C6
:100DA000F5CF79F0BFEC8EF074C083F075C084F09D
:100DB00076C085F0120000018951800A750FD8A015
:100DC00063D0000E0001696F0A0E686F000189513F
:100DD0000001666F676B66BF67075CEC96F0090EF3
:100DE0000001662500016E6F000E00016721000101
:100DF0006F6F000E0001716F030E706FCFEC9BF0F0
:100E00002E0E00016E25F66EFE0E00016F21F76EAC
:100E1000F86A000EF8220900F5CF74F00900F5CF4A
:100E200075F00A00F5CF76F0000E0001716F030E29
:100E3000706F000E0001636F0A0E626F000189512E
:100E40000001606F616B60BF6107C7EC97F060C025
:100E50006EF061C06FF0CFEC9BF02E0E00016E259E
:100E6000F66EFE0E00016F21F76EF86A000EF82292
:100E70000900F5CF77F00900F5CF78F00A00F5CF3B
:100E800079F0BFEC8EF090D700018951030D2E0E42
:100E9000F324F66EFE0EF420F76EF86A000EF822C8
:100EA0000900F5CF83F00900F5CF84F00A00F5CFF3
:100EB00085F0120000018C6F6D0E00018C65C3D0AF
:100EC000000E0001716F030E706F000E0001696F5C
:100ED0000A0E686F000E0001636F640E626F8CC0B3
:100EE00060F00001616BC7EC97F060C066F061C014
:100EF00067F05CEC96F0090E0001662500016E6F4C
:100F0000000E0001672100016F6FCFEC9BF0070E10
:100F100000016E25F66EFE0E00016F21F76EF86A75
:100F2000000EF8220900F5CF77F00900F5CF78F030
:100F30000A00F5CF79F0000E0001696F640E686F4A
:100F40008CC066F00001676B5CEC96F0120E00013D
:100F5000662500016E6F000E0001672100016F6FB2
:100F6000000E0001716F030E706FCFEC9BF0070E47
:100F700000016E25F66EFE0E00016F21F76EF86A15
:100F8000000EF8220900F5CF74F00900F5CF75F0D6
:100F90000A00F5CF76F0BFEC8EF074C089F075C012
:100FA0008AF076C08BF0000E0001716F030E706F37
:100FB000000E0001636F0A0E626F8CC060F00001CA
:100FC000616BC7EC97F060C06EF061C06FF0CFEC62
:100FD0009BF0070E00016E25F66EFE0E00016F21DC
:100FE000F76EF86A000EF8220900F5CF77F00900D5
:100FF000F5CF78F00A00F5CF79F089C074F08AC097
:1010000075F08BC076F0BFEC8EF074C086F075C0C2
:1010100087F076C088F086C074F087C075F088C00D
:1010200076F0000E0001776F000E0001786F3F0E22
:101030000001796FBFEC8EF074C083F075C084F04E
:1010400076C085F012000A0E00018C6574D0000E87
:101050000001716F030E706F000E0001636F0A0EC6
:10106000626F8CC060F00001616BC7EC97F060C0EC
:101070006EF061C06FF0CFEC9BF0070E00016E25A3
:10108000F66EFE0E00016F21F76EF86A000EF82270
:101090000900F5CF77F00900F5CF78F00A00F5CF19
:1010A00079F0000E0001696F0A0E686F8CC066F05F
:1010B0000001676B5CEC96F0090E000166250001EB
:1010C0006E6F000E0001672100016F6F000E0001BE
:1010D000716F030E706FCFEC9BF0070E00016E2551
:1010E000F66EFE0E00016F21F76EF86A000EF82210
:1010F0000900F5CF74F00900F5CF75F00A00F5CFBF
:1011000076F0BFEC8EF074C089F075C08AF076C0BE
:101110008BF089C074F08AC075F08BC076F0000E39
:101120000001776F000E0001786F3F0E0001796FAC
:10113000BFEC8EF081D700018C51030D070EF32414
:10114000F66EFE0EF420F76EF86A000EF822090023
:10115000F5CF74F00900F5CF75F00A00F5CF76F001
:10116000000E0001776F000E0001786F3F0E000146
:10117000796FBFEC8EF074C083F075C084F076C0D8
:1011800085F012008FAABBD03BC03DF03CC03EF0C2
:101190000F0108511C6E1B6A0F0107511B243B6E87
:1011A000000E1C203C6E3D501B6E3E501C6E1D6A96
:1011B0001E6A1B1E1C1E1D1E1E1E1B2A000E1C222C
:1011C0001D221E2241C001F042C002F0036A046ADF
:1011D000FF0E056EFF0E066E000E076E000E086E07
:1011E0001CEC9BF03B5001241F6E3C500220206EF3
:1011F000000E0320216E000E0420226E1B501F24BF
:101200000D6E1C5020200E6E1D5021200F6E1E50A2
:101210002220106E100E116E000E126E000E136E54
:10122000000E146E92EC95F00DC059F00EC05AF0FD
:101230000FC05BF010C05CF059C001F05AC002F062
:101240005BC003F05CC004F059C005F05AC006F062
:101250005BC007F05CC008F01CEC9BF001C023F001
:1012600002C024F003C025F004C026F023C001F022
:1012700024C002F025C003F026C004F0280E056E3D
:10128000000E066E000E076E000E086E1CEC9BF042
:1012900001C00EF002C00FF003C010F004C011F046
:1012A000EEEC9AF00EC0E2F00FC0E3F010C0E4F0F4
:1012B00059C005F05AC006F05BC007F05CC008F0EA
:1012C000800E016E840E026E1E0E036E000E046E02
:1012D0004FEC99F001C00EF002C00FF003C010F007
:1012E00004C011F0EEEC9AF00EC0DFF00FC0E0F099
:1012F00010C0E1F0000E426E000E416E8F9A8FA278
:10130000120035C037F036C038F00F0114511C6E92
:101310001B6A0F0113511B24356E000E1C20366E04
:1013200037501B6E38501C6E1D6A1E6A1B1E1C1E19
:101330001D1E1E1E1B2A000E1C221D221E223FC027
:1013400001F040C002F0036A046AFF0E056EFF0E52
:10135000066E000E076E000E086E1CEC9BF03550FA
:1013600001241F6E36500220206E000E0320216ED5
:10137000000E0420226E1B501F240D6E1C502020D6
:101380000E6E1D5021200F6E1E502220106E100E6A
:10139000116E000E126E000E136E000E146E92ECA3
:1013A00095F00DC055F00EC056F00FC057F010C0AC
:1013B00058F055C005F056C006F057C007F058C0A9
:1013C00008F0800E016E840E026E1E0E036E000E7B
:1013D000046E4FEC99F001C00EF002C00FF003C094
:1013E00010F004C011F0EEEC9AF00EC0D9F00FC06E
:1013F000DAF010C0DBF0000E406E000E3F6E8F92F0
:1014000012008FC093F00001946B956B00018E3534
:101410000001933701E39481000193510001986F1B
:1014200092C093F00001946B956B0001913500011F
:10143000933701E39481000193510001976F0001FC
:1014400098510001D8B411D0000197510001985D66
:10145000D8B012D000019851000800019725000172
:10146000936F180E0001936507D090C08DF091C066
:101470008EF092C08FF01200000197510001D8B495
:1014800011D0000198510001975DD8B012D0000131
:1014900097510008000198250001936F180E000174
:1014A000936507D08DC08DF08EC08EF08FC08FF009
:1014B0001200060E0001966F00018FAF02D00001EE
:1014C000968F000192AF02D00001968D00018E8FA1
:1014D000FF0E00018D17FF0E00018E17000E000198
:1014E0008F170001918FFF0E00019017FF0E000172
:1014F0009117000E00019217000197510001985DAD
:10150000D8B025D00001D89090379137923700019C
:1015100097070001985100019719D8B411D0000124
:10152000960796C093F0070E00019317D8B408D021
:10153000E9D70001D8908F338E338D330001982B7B
:101540000001975100019819D8B42BD0F2D70001AF
:1015500098510001975DD8B024D00001D8908D3704
:101560008E378F37000198070001985100019719B5
:10157000D8B411D00001960796C093F0070E000171
:101580009317D8B408D0E9D70001D890923391339B
:1015900090330001972B0001975100019819D8A4AE
:1015A000F3D7000196AF12D0FF0E00018D1BFF0E86
:1015B00000018E1BFF0E00018F1B010E00018D2705
:1015C000000E00018E23000E00018F23000196AD56
:1015D00012D0FF0E0001901BFF0E0001911BFF0EA9
:1015E0000001921B010E00019027000E00019123C3
:1015F000000E00019223000E0001966F00018D5134
:101600000001902700018E510001912300018F51AC
:1016100000019223000192AF15D0FF0E0001901B34
:10162000FF0E0001911BFF0E0001921B010E000135
:101630009027000E00019123000E00019223010E5D
:101640000001966F90C060F091C061F092C062F0AE
:1016500098C063F096C064F0ABEC93F060C08DF07E
:1016600061C08EF062C08FF012000001AC51000129
:10167000AD110001AE11D8A40AD0000E0001AC6F6C
:10168000800E0001AD6F3F0E0001AE6F1200720EB2
:101690000001836F310E0001846F440E0001856FDD
:1016A000ACC086F0ADC087F0AEC088F0F8EC95F025
:1016B0000001D8B00FD0000E0001E96F220EE86FD4
:1016C000FF0E0001AC6F7F0E0001AD6F7F0E0001B9
:1016D000AE6F1200ACC083F0ADC084F0AEC085F038
:1016E000490E0001866F3A0E0001876FC40E00019B
:1016F000886FF8EC95F00001D8B00FD0000E000113
:10170000E96F220EE86F000E0001AC6F000E0001C1
:10171000AD6F000E0001AE6F12000001AEAF02D03F
:10172000010E01D0000E0001B46F0001B4510001A0
:10173000D8B40ED0ACC060F0ADC061F0AEC062F005
:10174000EAEC9BF060C0ACF061C0ADF062C0AEF0FE
:10175000ACC074F0ADC075F0AEC076F0AA0E00015A
:10176000776FB80E0001786F3F0E0001796FBFEC04
:101770008EF074C0ACF075C0ADF076C0AEF0ACC009
:10178000A3F0ADC0A4F0AEC0A5F031EC94F0A3C0BE
:10179000AFF0A4C0B0F0A5C0B1F0AFC08AF0B0C047
:1017A0008BF0B1C08CF063EC91F08AC0B2F08BC0CA
:1017B000B3F0ACC099F0ADC09AF0AEC09BF0B2C02F
:1017C00068F0B3C069F08FEC9BF068C09CF069C012
:1017D0009DF06AC09EF047EC9BF099C0ACF09AC0B7
:1017E000ADF09BC0AEF0ACC099F0ADC09AF0AEC009
:1017F0009BF0150E00019C6FFF0E00019D6F000E07
:1018000000019F6F090E9E6FB0EC94F099C0A5F097
:101810009AC0A6F09BC0A7F0B2C0A8F0B3C0A9F0D0
:1018200098EC92F0A5C0ACF0A6C0ADF0A7C0AEF0A9
:101830000001B4510001D8B42ED00001AC2913E14D
:101840007F0E0001AD190FE17F0E0001AE19D8A483
:101850000AD0000E0001AC6F000E0001AD6F000E4B
:101860000001AE6F1200000E0001996F800E0001A2
:101870009A6F3F0E00019B6FACC09CF0ADC09DF015
:10188000AEC09EF0BDEC90F099C0ACF09AC0ADF047
:101890009BC0AEF01200ACC0ACF0ADC0ADF0AEC0BD
:1018A000AEF01200000E0001C16F0001B551000141
:1018B000B6110001B711D8A423D0000E0001836F28
:1018C000000E0001846F000E0001856FB8C086F025
:1018D000B9C087F0BAC088F0F8EC95F00001D8A044
:1018E00005D0000E0001E96F210EE86F000E000127
:1018F000B56F000E0001B66F000E0001B76F120049
:101900000001B8510001B9110001BA11D8A40AD0E0
:10191000000E0001B56F800E0001B66F3F0E000192
:10192000B76F12000001B7AF4CD0B8C08AF0B9C091
:101930008BF0BAC08CF063EC91F08AC0C2F08BC01F
:10194000C3F08CC0C4F08DC0C5F0C2C068F0C3C085
:1019500069F0C4C06AF0C5C06BF090EC99F000016A
:10196000B851000168190BE10001B9510001691972
:1019700006E10001BA5100016A19D8B40FD0000E77
:101980000001E96F210EE86F000E0001B56F000E37
:101990000001B66F000E0001B76F12000001C251C6
:1019A000010B0001C16FB5C060F0B6C061F0B7C0F7
:1019B00062F0EAEC9BF060C0B5F061C0B6F062C0C6
:1019C000B7F0B5C0A5F0B6C0A6F0B7C0A7F06EECF2
:1019D0008FF0A5C0BBF0A6C0BCF0A7C0BDF0BBC0D7
:1019E00074F0BCC075F0BDC076F0B8C077F0B9C077
:1019F00078F0BAC079F0BFEC8EF074C0BEF075C05C
:101A0000BFF076C0C0F0BEC0ACF0BFC0ADF0C0C08B
:101A1000AEF035EC8BF0ACC0B5F0ADC0B6F0AEC0FA
:101A2000B7F00001C1510001D8B40FD0B5C060F0CB
:101A3000B6C061F0B7C062F0EAEC9BF060C0B5F0F0
:101A400061C0B6F062C0B7F01200B5C0B5F0B6C064
:101A5000B6F0B7C0B7F0120062C066F00001676B65
:101A6000686B000161350001663701E367810001A1
:101A7000665100016E6F00016E51D8A40AD0000EAD
:101A80000001606F000E616F000E626F000E636FE9
:101A9000120065C066F00001676B686B0001643579
:101AA0000001663701E367810001665100016D6F37
:101AB00000016D51D8A40AD0000E0001606F000E25
:101AC000616F000E626F000E636F12000001618F84
:101AD000FF0E00016017FF0E00016117000E0001EC
:101AE00062170001648FFF0E00016317FF0E0001F3
:101AF0006417000E00016517000E0001696F000EEB
:101B00006A6F000E6B6F000E6C6F7F0E00016E5FD0
:101B100000016D51980F00016E5F180E00016D6F8E
:101B20000001D89069376A376B376C370001635111
:101B30000001605D000164510001615900016551BF
:101B400000016259D8A00ED0000163510001605F0E
:101B5000000164510001615B000165510001625B9D
:101B6000000169810001D890603761376237000158
:101B70006D2FD6D700016EAF1AD000016E51800ACA
:101B8000970FD8B00AD0000E0001606F000E616F91
:101B9000000E626F000E636F12000001D8906C336C
:101BA0006B336A33693300016E3FF7D71BD0170ED2
:101BB00000016E6512D0000E0001606F000E616FB3
:101BC000000E626F000E636F12000001D89069373B
:101BD0006A376B376C3700016E0700016E510001E8
:101BE000D8A4F3D769C060F06AC061F06BC062F03E
:101BF0006CC063F0120000016235633500016B6F49
:101C000000016B51D8A40AD0000E0001606F000ED5
:101C1000616F000E626F000E636F12000001653588
:101C2000663500016A6F00016A51D8A40AD0000E1F
:101C30000001606F000E616F000E626F000E636F37
:101C400012000001628FFF0E00016017FF0E611786
:101C5000FF0E6217000E63170001658FFF0E000173
:101C60006317FF0E6417FF0E6517000E6617000E50
:101C70000001666F000E676F000E686F000E696FDF
:101C80007F0E00016B5F00016A51A00F00016B5FC6
:101C9000200E00016A6F0001D890663767376837F9
:101CA0006937000163510001605D0001645100016A
:101CB000615900016551000162590001665100013E
:101CC0006359D8A012D0000163510001605F000188
:101CD00064510001615B000165510001625B00011C
:101CE00066510001635B000166810001D890603796
:101CF00061376237633700016A2FCDD700016BAFC0
:101D00001AD000016B51800A9F0FD8B00AD0000E84
:101D10000001606F000E616F000E626F000E636F56
:101D200012000001D89069336833673366330001CD
:101D30006B3FF7D71BD01F0E00016B6512D0000E52
:101D40000001606F000E616F000E626F000E636F26
:101D500012000001D890663767376837693700018D
:101D60006B0700016B510001D8A4F3D766C060F087
:101D700067C061F068C062F069C063F0120076C0AD
:101D80007AF000017B6B7C6B0001753500017A37BE
:101D900001E37B8100017A5100017D6F00017D51DB
:101DA000D8A40AD0000E0001746F000E0001756FF8
:101DB000000E0001766F120079C07AF000017B6B93
:101DC0007C6B0001783500017A3701E37B810001EB
:101DD0007A510001826F00018251D8A40AD0000E0E
:101DE0000001746F000E0001756F000E0001766F28
:101DF0001200000182517B0F00017D2776C082F026
:101E0000000179510001821B800E00018217000140
:101E1000758F0001788FFF0E00017717FF0E00010C
:101E20007817000E00017917000E00017E6F000E7A
:101E300000017F6F000E0001806F070E0001816FAF
:101E4000000174A10CD00001775100017E27000130
:101E5000785100017F2300017951000180230001A6
:101E6000D8907633753374330001D890773778374C
:101E700079370001812FE4D7090E0001816F00013D
:101E800074A10CD00001775100017E270001785128
:101E900000017F2300017951000180230001D890C7
:101EA0007633753374330001D89080337F337E33BB
:101EB0000001812FE4D77EC060F07FC061F080C058
:101EC00062F07DC063F082C064F0ABEC93F060C060
:101ED00074F061C075F062C076F012000001A7AF27
:101EE0000FD0000E0001E96F210EE86F000E000117
:101EF000A56F000E0001A66F000E0001A76F120073
:101F00000001A5510001A6110001A711D8A40FD00E
:101F1000000E0001E96F220EE86F000E0001A56FB0
:101F2000000E0001A66F000E0001A76F1200000E48
:101F30000001776F000E0001786F400E0001796F8D
:101F4000A80E0001636F000E0001646FA5C060F071
:101F5000A6C061F0A7C062F019EC97F060C074F001
:101F600061C075F062C076F0BFEC8EF074C08DF089
:101F700075C08EF076C08FF0000E0001906F800E5D
:101F80000001916FBF0E0001926F01EC8AF08DC0CD
:101F9000A5F08EC0A6F08FC0A7F00001A807D8A0BA
:101FA000A907A5C099F0A6C09AF0A7C09BF0330E70
:101FB00000019C6FFF0E00019D6F000E00019F6FDE
:101FC000080E9E6FB0EC94F099C0A5F09AC0A6F0F0
:101FD0009BC0A7F0720E0001776F310E0001786F81
:101FE0003F0E0001796FA8C068F0A9C069F08FECBE
:101FF0009BF068C074F069C075F06AC076F0BFEC01
:102000008EF074C08DF075C08EF076C08FF0A5C0D4
:1020100090F0A6C091F0A7C092F001EC8AF08DC0BC
:10202000A5F08EC0A6F08FC0A7F01200809400012A
:10203000F1510001D8A404D0000EC96E0001F12BAB
:1020400073A012000001F005D8A402D00001F22B09
:10205000020E0001F019D8A402D00001F207F2C06C
:10206000C9FF000E0001F16F0001F25119EC9CF064
:1020700068C0B8F069C0B9F06AC0BAF03B0E0001A0
:10208000B56F700E0001B66F3F0E0001B76F52ECD6
:102090008CF0B5C0C6F0B6C0C7F0B7C0C8F0000E2F
:1020A0000001906F7A0E0001916F440E0001926F53
:1020B000510E0001776FC30E0001786F430E0001CF
:1020C000796F0001F251020DF3CF68F0F4CF69F09F
:1020D0008FEC9BF068C074F069C075F06AC076F050
:1020E000BFEC8EF074C08DF075C08EF076C08FF0AE
:1020F00001EC8AF08DC0C9F08EC0CAF08FC0CBF061
:10210000C6C077F0C7C078F0C8C079F0C9C074F015
:10211000CAC075F0CBC076F0BFEC8EF074C0CCF0C6
:1021200075C0CDF076C0CEF0520E0001996FB80E9A
:1021300000019A6F3F0E00019B6FFF0E0001776F49
:10214000960E0001786F390E0001796FCCC074F0E3
:10215000CDC075F0CEC076F0BFEC8EF074C09CF0B0
:1021600075C09DF076C09EF0BDEC90F099C0F9F07E
:102170009AC0FAF09BC0FBF012009BC09FF00001D8
:10218000A06BA16B00019A3500019F3701E3A0818C
:1021900000019F510001A66F0001A651D8A40AD0EA
:1021A000000E0001996F000E00019A6F000E0001F1
:1021B0009B6F12009EC09FF00001A06BA16B0001FD
:1021C0009D3500019F3701E3A08100019F5100016F
:1021D000A76F0001A751D8A40AD0000E0001996F83
:1021E000000E00019A6F000E00019B6F1200000E9E
:1021F0000001A36F000E0001A46F000E0001A56F87
:102200000001A751890F0001A65F9BC0A7F0000144
:102210009E510001A71B800E0001A71700019A8F95
:10222000FF0E00019917FF0E00019A17000E000122
:102230009B1700019D8FFF0E00019C17FF0E0001F0
:102240009D17000E00019E17180E0001A26F0001DD
:10225000D890A337A437A53700019C510001995DA0
:1022600000019D5100019A5900019E5100019B59A6
:10227000D8A00ED000019C510001995F00019D5132
:1022800000019A5B00019E5100019B5B0001A3814C
:102290000001D89099379A379B370001A22FD7D7E2
:1022A000A3C060F0A4C061F0A5C062F0A6C063F056
:1022B000A7C064F0ABEC93F060C099F061C09AF0F5
:1022C00062C09BF012008CC08EF000018F6B906B8F
:1022D00000018B3500018E3701E38F8100018E51A3
:1022E0000001986F00019851D8A40AD0000E000197
:1022F0008A6F000E8B6F000E8C6F000E8D6F1200B8
:10230000170E00018E6F8AC08FF08BC090F08CC0CA
:1023100091F000018E290001926F05D00001D89044
:10232000913390338F330001922FF8D700018F51F2
:102330000001936F00018B8FFF0E00018A17FF0EC3
:1023400000018B17000E00018C1700018A5100015B
:10235000946F00018B510001956F00018C510001B9
:10236000966F0001976B8E0E0001985F000198AF89
:102370001AD000019851800A8F0FD8B00AD0000EF1
:1023800000018A6F000E8B6F000E8C6F000E8D6F38
:1023900012000001D890973396339533943300019F
:1023A000983FF7D71BD0170E0001986512D0000E8A
:1023B00000018A6F000E8B6F000E8C6F000E8D6F08
:1023C00012000001D890943795379637973700015F
:1023D0009807000198510001D8A4F3D70001935148
:1023E0000001D8B409D00001971F961F951F946D66
:1023F000000E95239623972394C08AF095C08BF006
:1024000096C08CF097C08DF01200000E736E320EE5
:10241000726E9394929A938A929443EC9CF000018A
:10242000F25119EC9CF068C0B8F069C0B9F06AC00C
:10243000BAF03B0E0001B56F700E0001B66F3F0E93
:102440000001B76F52EC8CF0B5C0C6F0B6C0C7F053
:10245000B7C0C8F0000E0001906F7A0E0001916FB6
:10246000440E0001926F510E0001776FC30E000100
:10247000786F430E0001796F0001F251020DF3CF26
:1024800068F0F4CF69F08FEC9BF068C074F069C01D
:1024900075F06AC076F0BFEC8EF074C08DF075C038
:1024A0008EF076C08FF001EC8AF08DC0C9F08EC03E
:1024B000CAF08FC0CBF0C6C077F0C7C078F0C8C0F4
:1024C00079F0C9C074F0CAC075F0CBC076F0BFEC2B
:1024D0008EF074C0CCF075C0CDF076C0CEF0520E48
:1024E0000001996FB80E00019A6F3F0E00019B6FBB
:1024F000FF0E0001776F960E0001786F390E000114
:10250000796FCCC074F0CDC075F0CEC076F0BFEC62
:102510008EF074C09CF075C09DF076C09EF0BDEC4E
:1025200090F099C0F9F09AC0FAF09BC0FBF012004D
:102530000001A5510001A6110001A711D8A40AD0DD
:10254000000E0001A56F000E0001A66F000E000135
:10255000A76F12000001A7517F0B0001AA6FAB6BA0
:10256000D8900001AA37AB370001AA510001A82773
:102570000001AB510001A9230001A6AF04D0000166
:10258000AA6BAA2B02D00001AA6B0001AA5100017C
:10259000A827000EA9230001A9AF0FD0000E00014B
:1025A000E96F220EE86F000E0001A56F000E00011A
:1025B000A66F000E0001A76F12000001A9BF1CD07A
:1025C0000001A905D8A018D0000E0001E96F220E65
:1025D000E86F0001A7AF08D0FF0E0001A56F7F0EC6
:1025E0000001A66FFF0EE6D7FF0E0001A56F7F0E5C
:1025F0000001A66F7F0EDED70001A935A9310001C9
:10260000AB6F0001A8310001AA6F0001A7510001C2
:10261000AA19800BAA190001A76FA8C0AAF0010E81
:102620000001AA170001AA33AA330001A651000134
:10263000AA197F0BAA190001A66FA5C0A5F0A6C014
:10264000A6F0A7C0A7F01200D388D380D382010ED2
:102650000001F86F53EC9CF002EC9CF07DEC9CF0D8
:1026600005EC92F048EC9AF0CEEC99F0010E6BEC90
:102670009CF0CD0E0001CD6F8C0E0001CE6F3F0E91
:102680000001CF6FCD0E0001D06F0C0E0001D16F95
:10269000400E0001D26F330E0001D36F530E0001C4
:1026A000D46F400E0001D56FCD0E0001D66F8C0E99
:1026B0000001D76F400E0001D86FB8EC9AF0000E01
:1026C0006BEC9CF0030E0001616F200E606F6DECEF
:1026D0009BF081EC9AF030EC9CF0000E0001656FED
:1026E000020E0001666F0BEC9AF0030E0001616FA1
:1026F000200E606F6DEC9BF0000E0001656F030E05
:102700000001666F0BEC9AF0030E0001616F200E62
:10271000606F6DEC9BF0000E0001656F050E00010F
:10272000666F0BEC9AF0030E0001616F200E606F74
:102730006DEC9BF0030E0001616F200E606F6DEC7D
:102740009BF0030E0001616F200E606F6DEC9BF03B
:102750002AEC95F08BD7000163510001D8B408D062
:10276000000160510001611100016211D8A411D073
:10277000000E0001606F000E0001616F000E00018D
:10278000626F12000001632B0001D8906233613345
:102790006033000E000160150001656F000E00013E
:1027A00061150001666FFE0E000162150001676F82
:1027B000000165510001661100016711D8B411D004
:1027C000E1D70001632B010E00016027000E00011C
:1027D0006123000E000162230001D890623361334F
:1027E0006033000E000160150001656F000E0001EE
:1027F00061150001666FFF0E000162150001676F31
:10280000000165510001661100016711D8B408D0BC
:10281000D8D7000163070001D8906037613762376D
:10282000000161BF04D0020E00016361F2D7000114
:1028300063B102D00001619F0001D89063330001B1
:10284000635100016213000164510001D8B402D049
:102850000001628F60C060F061C061F062C062F030
:102860001200A3C060F0A4C061F0A5C062F0A90E80
:102870000001636F000E0001646F19EC97F0000116
:10288000AAAF17D00001A5AF0AD0000E0001A36FB8
:10289000800E0001A46FBF0E0001A56F1200000E94
:1028A0000001A36F000E0001A46F000E0001A56FD0
:1028B00012000001AA5105E1150E0001A95DD8A082
:1028C00007D0A3C0A3F0A4C0A4F0A5C0A5F0120037
:1028D000A3C08AF0A4C08BF0A5C08CF063EC91F08B
:1028E0008AC099F08BC09AF08CC09BF08DC09CF090
:1028F00067EC98F099C0A6F09AC0A7F09BC0A8F02A
:10290000A3C083F0A4C084F0A5C085F0A6C086F063
:10291000A7C087F0A8C088F0F8EC95F00001D8B007
:1029200018D0A6C08DF0A7C08EF0A8C08FF0000E02
:102930000001906F800E0001916FBF0E0001926F39
:1029400001EC8AF08DC0A3F08EC0A4F08FC0A5F07A
:102950001200A6C0A3F0A7C0A4F0A8C0A5F0120062
:102960009EC06EF09FC06FF0000E0001716F030EED
:10297000706FCFEC9BF09CC0A0F09DC0A1F0000157
:102980006E510001A02700016F510001A123A0C0DA
:10299000F6FFA1C0F7FF000EF86E0900F5CFA2F018
:1029A0000900F5CFA3F00A00F5CFA4F046D0A2C0ED
:1029B00077F0A3C078F0A4C079F099C074F09AC001
:1029C00075F09BC076F0BFEC8EF074C08DF075C0D2
:1029D0008EF076C08FF0000E0001716F030E706FE5
:1029E00000019E07D8A09F079EC06EF09FC06FF0A9
:1029F000CFEC9BF09CC0A0F09DC0A1F000016E51F7
:102A00000001A02700016F510001A123A0C0F6FF23
:102A1000A1C0F7FF000EF86E0900F5CF90F0090095
:102A2000F5CF91F00A00F5CF92F001EC8AF08DC05D
:102A3000A2F08EC0A3F08FC0A4F000019E5100014F
:102A40009F11D8A4B4D7A2C099F0A3C09AF0A4C093
:102A50009BF0120055C068F056C069F057C06AF08C
:102A600058C06BF090EC99F068C0DCF069C0DDF004
:102A70006AC0DEF0390E0001776F840E0001786FB6
:102A80003F0E0001796FF9C074F0FAC075F0FBC019
:102A900076F0BFEC8EF074C083F075C084F076C021
:102AA00085F0DCC086F0DDC087F0DEC088F0F8EC91
:102AB00095F00001D8B005D0010E0001F06F16ECC2
:102AC00090F0DCC083F0DDC084F0DEC085F01D0E28
:102AD0000001776F780E0001786F3F0E0001796F6B
:102AE000F9C074F0FAC075F0FBC076F0BFEC8EF060
:102AF00074C086F075C087F076C088F0F8EC95F069
:102B00000001D8B00AD00001F251D8B406D0020EAC
:102B10000001F06F16EC90F0120080B4120084EC0B
:102B20009CF01200000E166E14AE0AD0141E131E76
:102B3000121E116C000E122213221422010E166EA8
:102B400010AE0AD0101E0F1E0E1E0D6C000E0E22AF
:102B50000F221022010E161A000E176E000E186EAC
:102B6000000E196E000E1A6E115012101310141070
:102B7000D8B42AD0010E156E06D0D8901136123670
:102B800013361436152A14AEF8D7D89017361836DF
:102B900019361A3611500D5C12500E5813500F583A
:102BA00014501058D8A009D011500D5E12500E5A72
:102BB00013500F5A1450105A1780D89014321332F1
:102BC00012321132152EE1D71650D8B408D01A1E81
:102BD000191E181E176C000E182219221A2217C06F
:102BE0000DF018C00EF019C00FF01AC010F012004E
:102BF000000185AF1DD083C089F084C08AF085C0F4
:102C00008BF00001891F8A1F8B1F892B000E8A23DE
:102C10008B23000E000189250001836F000E000147
:102C20008A210001846F800E00018B210001856FD5
:102C3000000188AF1DD086C089F087C08AF088C0A7
:102C40008BF00001891F8A1F8B1F892B000E8A239E
:102C50008B23000E000189250001866F000E000104
:102C60008A210001876F800E00018B210001886F8F
:102C7000000E0001831B000E0001841B800E00016A
:102C8000851B000E0001861B000E0001871B800EB5
:102C90000001881B000186510001835D00018751FE
:102CA000000184590001885100018559D8B002D033
:102CB000D8901200D8801200000E00016B6F000146
:102CC00069AF08D00001686D691FD8B0692B010E8B
:102CD00000016B6F000167AF08D00001666D671FD0
:102CE000D8B0672B010E00016B1B000E00016D6F49
:102CF000000E6C6F0001685100016911D8B42CD02E
:102D0000010E00016A6F06D00001D890683769375C
:102D100000016A2B000169AFF7D70001D8906C372A
:102D20006D37000168510001665D000169510001C5
:102D30006759D8A00AD0000168510001665F000100
:102D400069510001675B00016C810001D890693313
:102D5000683300016A2FE1D700016B510001D8B43C
:102D600005D000016C6D6D1FD8B06D2B6CC066F086
:102D70006DC067F01200000E0001686F000E696FF1
:102D8000000E6A6F000E6B6F000164510001651147
:102D90000001661100016711D8B442D0010E000194
:102DA0006C6F08D00001D890643765376637673795
:102DB00000016C2B000167AFF5D70001D890683790
:102DC00069376A376B37000164510001605D0001AB
:102DD000655100016159000166510001625900010D
:102DE000675100016359D8A012D00001645100015D
:102DF000605F000165510001615B000166510001E7
:102E0000625B000167510001635B000168810001A2
:102E1000D890673366336533643300016C2FCDD7A8
:102E200068C060F069C061F06AC062F06BC063F0B6
:102E30001200000160510001611100016211D8A46B
:102E400012D063C0D9FF64C0DAFF000EDE6E000E40
:102E5000DD6E000E0001606F000E0001616F000E5C
:102E60000001626F1200000162517F0B0001656F6B
:102E7000666BD89000016537663763C0D9FF64C0C0
:102E8000DAFF65C0DEFF66C0DDFF000161AF04D080
:102E90000001656B652B02D00001656B0001655177
:102EA00063C0D9FF64C0DAFFDE12000EDD1263C01A
:102EB000D9FF64C0DAFF820EDE26FF0EDD2200019C
:102EC00062816283628562876289628B629D000192
:102ED000619F60C060F061C061F062C062F012008A
:102EE0000450D8B405D0015002100310D8A40CD05F
:102EF000000E016E000E026E000E036E1200042A18
:102F0000D890033202320132000E0114066E000E18
:102F10000214076EFE0E0314086E06500710081008
:102F2000D8B40CD0ECD7042A010E0126000E0222E0
:102F3000000E0322D890033202320132000E011437
:102F4000066E000E0214076EFF0E0314086E065084
:102F500007100810D8B406D0E6D70406D89001367A
:102F60000236033602BE03D0020E0460F6D704A078
:102F7000029ED8900432045003120550D8A4038E48
:102F800001C001F002C002F003C003F01200000E05
:102F90000001656F000161AF08D00001606D611F25
:102FA000D8B0612B010E0001656F000163AF05D041
:102FB0000001626D631FD8B0632B000162510001F4
:102FC0006311D8B426D0010E0001646F06D0000151
:102FD000D890623763370001642B000163AFF7D7E5
:102FE000000162510001605D0001635100016159FF
:102FF000D8A008D0000162510001605F0001635158
:103000000001615B0001D890633362330001642FDB
:10301000E7D7000165510001D8B405D00001606D0B
:10302000611FD8B0612B60C060F061C061F0120018
:1030300005EE00F0C80EEE6AE806FDE104EE00F0D1
:10304000C80EEE6AE806FDE103EE00F0C80EEE6A77
:10305000E806FDE102EE00F0C80EEE6AE806FDE1CA
:1030600001EE00F0820EEE6AE806FDE100EED9F016
:103070001A0EEE6AE806FDE100EE35F0280EEE6A63
:10308000E806FDE1C20EF66E380EF76E010EF86E20
:1030900001EE82F010EE14F00900F5CFEEFFE550DE
:1030A000E150FAE1020EF66E390EF76E010EF86E7F
:1030B00000EEF3F010EE06F00900F5CFEEFFE5505C
:1030C000E150FAE15F905F92000124EF93F0000E6F
:1030D0000001A26F8E0E0001A16F00019CAF15D000
:1030E00000019C1F9B1F9A1F996D000E9A239B2322
:1030F0009C23010E0001A26F08D00001D8909C33E0
:103100009B339A3399330001A12B000E00019915CE
:1031100000019D6F000E00019A1500019E6F000EC8
:1031200000019B1500019F6FFF0E00019C1500011F
:10313000A06F00019D5100019E1100019F1100012F
:10314000A011D8A4DAD799C060F09AC061F09BC0F2
:1031500062F0A1C063F0A2C064F0ABEC93F060C079
:1031600099F061C09AF062C09BF0120000017151A9
:10317000000172110001731100017411D8B43AD02A
:10318000010E0001756F08D00001D89071377237B9
:10319000733774370001752B000174AFF5D7000148
:1031A000715100016D5D0001725100016E59000105
:1031B000735100016F590001745100017059D8A07A
:1031C00010D00001715100016D5F000172510001CA
:1031D0006E5B0001735100016F5B000174510001CF
:1031E000705B0001D8907433733372337133000114
:1031F000752FD5D76DC06DF06EC06EF06FC06FF0DB
:1032000070C070F012009EAC12009E9C31D0C3CFF3
:1032100049F0C4CF4AF0C250C30B2009C26E000E61
:103220003A6E010E23D0C3CF45F0C4CF46F0C25052
:10323000C30B0409C26E000E3A6E020E17D0C3CF44
:1032400047F0C4CF48F0C294C296C298C29A000E0A
:103250003A6E030E0BD0C3CF43F0C4CF44F0C2503C
:10326000C30B2409C26E000E3A6E000E396E15D0E3
:1032700039C001F03AC002F00250000AD8A40DD0C3
:103280000150000AD8B4C3D7010AD8B4CCD7030A76
:10329000D8B4D5D7010AD8B4DED7C2821200000E46
:1032A000096E000E0A6E000E0B6E000E0C6E0550BD
:1032B000061007100810D8B42AD0010E0D6E06D0E3
:1032C000D89005360636073608360D2A08AEF8D7E8
:1032D000D89009360A360B360C360550015C06507C
:1032E00002580750035808500458D8A009D0055078
:1032F000015E0650025A0750035A0850045A0980CA
:10330000D89008320732063205320D2EE1D709C0B7
:1033100001F00AC002F00BC003F00CC004F0120070
:103320008E0E0001706F08D00001D8906B336A33A5
:10333000693368330001702B000E0001681500012D
:103340006C6F000E0001691500016D6F000E000129
:103350006A1500016E6FFF0E00016B1500016F6FA3
:1033600000016C5100016D1100016E1100016F111F
:10337000D8A4DAD768C060F069C061F06AC062F0B2
:1033800070C063F0000E0001646FABEC93F060C09E
:1033900068F061C069F062C06AF01200F30E0001CB
:1033A000656FFE0E0001666F0BEC9AF0030E0001D4
:1033B000616F200E606F6DEC9BF0D10E0001656FA8
:1033C000FE0E0001666F0BEC9AF0030E0001616FB8
:1033D000200E606F6DEC9BF09F0E0001656FFE0E7E
:1033E0000001666F0BEC9AF00B0E0001616FB80ED6
:1033F000606F6DEC9BF04E0E0001656FFF0E0001DB
:10340000666F0BEC9AF00B0E0001616FB80E606FE7
:103410006DEC9BF0120065C0FCF066C0FDF0EEC0E4
:103420005DF0EFC05EF0AD8A1ED09EA81CD0FCC03F
:10343000F6FFFDC0F7FF000EF86E0E0EF76403D026
:103440000800F55005D0F6CFE1FFF7CFE2FFE750D7
:10345000AE6E0001FC4BFD2B000E0001616F010EF2
:10346000606F6DEC9BF0FCC0F6FFFDC0F7FF000E37
:10347000F86E0E0EF76403D00800F55005D0F6CFB5
:10348000E1FFF7CFE2FFE7500009D8B41200CDD733
:1034900094820F0150930F0150918E8A8F9A070EDC
:1034A0000F01066FF28ECD82CD80CD9CCD9ECD9A40
:1034B000CD98CD96000ECE6E000ECF6E000E0F0191
:1034C000086F000E0F01076F93880F0151910F01D4
:1034D00051938E828F92070E0F01126F9D80CD82C5
:1034E000CD80CD9CCD9ECD9ACD98CD96000ECE6E42
:1034F000000ECF6E000E0F01146F000E0F01136F40
:103500001200000E00019F6F020E0001A06F5E0E00
:103510000001A16FFF0E0001A26FDFC0A3F0E0C0A9
:10352000A4F0E1C0A5F0E2C0A6F0E3C0A7F0E4C0BB
:10353000A8F059C0A9F05AC0AAF05BC0ABF05CC0BB
:10354000ACF000EC80F0000E00019F6F030E000154
:10355000A06F890E0001A16FFF0E0001A26FD9C0FC
:10356000A3F0DAC0A4F0DBC0A5F000EC80F01200FC
:10357000000E00019F6F040E0001A06FC60E000137
:10358000A16FFF0E0001A26FCDC0A3F0CEC0A4F0CA
:10359000CFC0A5F0D0C0A6F0D1C0A7F0D2C0A8F08F
:1035A000D3C0A9F0D4C0AAF0D5C0ABF0D6C0ACF05F
:1035B000D7C0ADF0D8C0AEF000EC80F0000E000136
:1035C000656F040E0001666F0BEC9AF0070E0001A8
:1035D000616FD00E606F6DEC9BF012008E0E166E58
:1035E00006D0D890113210320F320E32162A000E49
:1035F0000E14126E000E0F14136E000E1014146EC3
:10360000FF0E1114156E1250131014101510D8A4BB
:10361000E8D70EC001F00FC002F010C003F016C0D2
:1036200004F0000E056E70EC97F001C00EF002C0C1
:103630000FF003C010F01200000E096E000E0A6EAB
:10364000000E0B6E000E0C6E01A008D0055009266E
:1036500006500A2207500B2208500C22D89005363B
:10366000063607360836D890043203320232013269
:103670000150021003100410D8A4E6D709C001F0CD
:103680000AC002F00BC003F00CC004F012000001ED
:103690009C5100019D1100019E11D8B409D0000E6B
:1036A00000019C1B000E00019D1B800E00019E1B53
:1036B00099C08DF09AC08EF09BC08FF09CC090F0A6
:1036C0009DC091F09EC092F001EC8AF08DC099F0FF
:1036D0008EC09AF08FC09BF01200000E0001646F44
:1036E000000E636F0BD0030E0001626F980EE82E80
:1036F000FED7622FFCD70001634B642B00016051A1
:103700000001635D00016451800A0001626F0001E5
:103710006151800A00016259D8B01200E4D7000E4E
:1037200000016B6F000169AF08D00001686D691F6F
:10373000D8B0692B010E00016B6F68C060F069C0E2
:1037400061F00001626B8E0E0001636F6BC064F06C
:10375000ABEC93F060C068F061C069F062C06AF0E1
:1037600012009EAA12009E9A000E0001EE25D96E4C
:10377000010E0001EF21DA6EAFCFDFFF0001EE4B4B
:10378000EF2B0001EF5105E1650E0001EE5DD8A0C1
:103790001200000E0001EF6F000EEE6F120000012C
:1037A0006E5100017003F3CF72F0F4CF73F000019B
:1037B0006E5100017103F3500001732700016F5136
:1037C00000017003F3500001732772C06EF073C0E4
:1037D0006FF01200000160510001611100016211DF
:1037E000D8B409D0000E0001601B000E0001611B5F
:1037F000800E0001621B60C060F061C061F062C0B9
:1038000062F01200928092828090809281909380E8
:1038100081929382FC0E0F01486F1F0E0F01496FBA
:10382000000EC26EBE0EC16EC2809E9C9D9CC28266
:10383000120000016B6F00016B510001606F616B42
:10384000626B8E0E0001636F000E0001646FABECC3
:1038500093F060C068F061C069F062C06AF0120065
:10386000000E00019F6F050E0001A06FAB0E00015E
:10387000A16FFF0E0001A26FF2C0A3F00001A46BC4
:1038800000EC80F01200550EA76EAA0EA76E0E0176
:10389000BF91080E0E01FC6F0B0E0E01C26F0A0ED7
:1038A0000E01C56F1200948E949CAD847E86000E2E
:1038B0007F6E220EB06EAD98AC8E9D989D8AAC88BE
:1038C0001200506970652074656D70203D202020C5
:1038D0002020200D0A000001606F00016005D8A4BF
:1038E00002D0AC881200AC9812009EA01200414A8F
:1038F000422A3F4A402A9E901200C00EF26ED09E8D
:0C390000120020202020200180841200F2
:08FFF800AEF7FAFFFFFBFFFB6F
:00000001FF
